{
  "contractName": "PinkyPromise",
  "abi": [
    {
      "inputs": [],
      "payable": false,
      "stateMutability": "nonpayable",
      "type": "constructor"
    },
    {
      "constant": true,
      "inputs": [
        {
          "internalType": "address",
          "name": "",
          "type": "address"
        },
        {
          "internalType": "uint256",
          "name": "",
          "type": "uint256"
        }
      ],
      "name": "knownUsersByUserAddr",
      "outputs": [
        {
          "internalType": "uint256",
          "name": "",
          "type": "uint256"
        }
      ],
      "payable": false,
      "stateMutability": "view",
      "type": "function"
    },
    {
      "constant": true,
      "inputs": [],
      "name": "knownUsersCount",
      "outputs": [
        {
          "internalType": "uint256",
          "name": "",
          "type": "uint256"
        }
      ],
      "payable": false,
      "stateMutability": "view",
      "type": "function"
    },
    {
      "constant": true,
      "inputs": [],
      "name": "name",
      "outputs": [
        {
          "internalType": "string",
          "name": "",
          "type": "string"
        }
      ],
      "payable": false,
      "stateMutability": "view",
      "type": "function"
    },
    {
      "constant": true,
      "inputs": [],
      "name": "promiseCount",
      "outputs": [
        {
          "internalType": "uint256",
          "name": "",
          "type": "uint256"
        }
      ],
      "payable": false,
      "stateMutability": "view",
      "type": "function"
    },
    {
      "constant": true,
      "inputs": [
        {
          "internalType": "address",
          "name": "",
          "type": "address"
        },
        {
          "internalType": "uint256",
          "name": "",
          "type": "uint256"
        }
      ],
      "name": "promiseIdsByUserAddr",
      "outputs": [
        {
          "internalType": "uint256",
          "name": "",
          "type": "uint256"
        }
      ],
      "payable": false,
      "stateMutability": "view",
      "type": "function"
    },
    {
      "constant": true,
      "inputs": [
        {
          "internalType": "uint256",
          "name": "",
          "type": "uint256"
        }
      ],
      "name": "promises",
      "outputs": [
        {
          "internalType": "uint256",
          "name": "id",
          "type": "uint256"
        },
        {
          "internalType": "string",
          "name": "title",
          "type": "string"
        },
        {
          "internalType": "string",
          "name": "description",
          "type": "string"
        },
        {
          "internalType": "uint256",
          "name": "createdAt",
          "type": "uint256"
        },
        {
          "internalType": "uint256",
          "name": "deadline",
          "type": "uint256"
        },
        {
          "internalType": "bool",
          "name": "completedBySharingUser",
          "type": "bool"
        },
        {
          "internalType": "bool",
          "name": "completedByReceivingUser",
          "type": "bool"
        },
        {
          "internalType": "address",
          "name": "sharingUser",
          "type": "address"
        },
        {
          "internalType": "address",
          "name": "receivingUser",
          "type": "address"
        },
        {
          "internalType": "bool",
          "name": "isPrivatePromise",
          "type": "bool"
        }
      ],
      "payable": false,
      "stateMutability": "view",
      "type": "function"
    },
    {
      "constant": true,
      "inputs": [
        {
          "internalType": "address",
          "name": "",
          "type": "address"
        }
      ],
      "name": "userIds",
      "outputs": [
        {
          "internalType": "uint256",
          "name": "",
          "type": "uint256"
        }
      ],
      "payable": false,
      "stateMutability": "view",
      "type": "function"
    },
    {
      "constant": true,
      "inputs": [],
      "name": "userPromiseIdsCount",
      "outputs": [
        {
          "internalType": "uint256",
          "name": "",
          "type": "uint256"
        }
      ],
      "payable": false,
      "stateMutability": "view",
      "type": "function"
    },
    {
      "constant": true,
      "inputs": [
        {
          "internalType": "uint256",
          "name": "",
          "type": "uint256"
        }
      ],
      "name": "users",
      "outputs": [
        {
          "internalType": "uint256",
          "name": "id",
          "type": "uint256"
        },
        {
          "internalType": "address",
          "name": "addr",
          "type": "address"
        },
        {
          "internalType": "string",
          "name": "name",
          "type": "string"
        },
        {
          "internalType": "bool",
          "name": "allowOnlyKnownUserPromises",
          "type": "bool"
        }
      ],
      "payable": false,
      "stateMutability": "view",
      "type": "function"
    },
    {
      "constant": true,
      "inputs": [],
      "name": "usersCount",
      "outputs": [
        {
          "internalType": "uint256",
          "name": "",
          "type": "uint256"
        }
      ],
      "payable": false,
      "stateMutability": "view",
      "type": "function"
    },
    {
      "constant": false,
      "inputs": [
        {
          "internalType": "string",
          "name": "_name",
          "type": "string"
        }
      ],
      "name": "addUser",
      "outputs": [],
      "payable": false,
      "stateMutability": "nonpayable",
      "type": "function"
    },
    {
      "constant": false,
      "inputs": [
        {
          "internalType": "uint256",
          "name": "_userId",
          "type": "uint256"
        },
        {
          "internalType": "uint256",
          "name": "_knownUserId",
          "type": "uint256"
        }
      ],
      "name": "addKnownUser",
      "outputs": [],
      "payable": false,
      "stateMutability": "nonpayable",
      "type": "function"
    },
    {
      "constant": false,
      "inputs": [
        {
          "internalType": "bool",
          "name": "_allowOnlyKnownUserPromises",
          "type": "bool"
        }
      ],
      "name": "setUserPromiseVisibility",
      "outputs": [],
      "payable": false,
      "stateMutability": "nonpayable",
      "type": "function"
    }
  ],
  "bytecode": "0x60806040526000600155600060045534801561001a57600080fd5b506040518060400160405280600c81526020017f50696e6b7950726f6d69736500000000000000000000000000000000000000008152506000908051906020019061006692919061006c565b50610111565b828054600181600116156101000203166002900490600052602060002090601f016020900481019282601f106100ad57805160ff19168380011785556100db565b828001600101855582156100db579182015b828111156100da5782518255916020019190600101906100bf565b5b5090506100e891906100ec565b5090565b61010e91905b8082111561010a5760008160009055506001016100f2565b5090565b90565b610f4a806101206000396000f3fe608060405234801561001057600080fd5b50600436106100cf5760003560e01c80635d8ba5291161008c5780637a83bad4116100665780637a83bad41461058f578063a752d0d2146105c7578063ca6b0612146105e5578063e801a31c14610647576100cf565b80635d8ba529146105235780636ba13a821461055357806371987d1514610571576100cf565b806306fdde03146100d457806318b8275a146101575780631f06c8591461021257806322261431146103c1578063365b98b2146103df5780634081db51146104cb575b600080fd5b6100dc6106a9565b6040518080602001828103825283818151815260200191508051906020019080838360005b8381101561011c578082015181840152602081019050610101565b50505050905090810190601f1680156101495780820380516001836020036101000a031916815260200191505b509250505060405180910390f35b6102106004803603602081101561016d57600080fd5b810190808035906020019064010000000081111561018a57600080fd5b82018360208201111561019c57600080fd5b803590602001918460018302840111640100000000831117156101be57600080fd5b91908080601f016020809104026020016040519081016040528093929190818152602001838380828437600081840152601f19601f820116905080830192505050505050509192919290505050610747565b005b61023e6004803603602081101561022857600080fd5b81019080803590602001909291905050506108be565b604051808b815260200180602001806020018a815260200189815260200188151515158152602001871515151581526020018673ffffffffffffffffffffffffffffffffffffffff1673ffffffffffffffffffffffffffffffffffffffff1681526020018573ffffffffffffffffffffffffffffffffffffffff1673ffffffffffffffffffffffffffffffffffffffff1681526020018415151515815260200183810383528c818151815260200191508051906020019080838360005b838110156103165780820151818401526020810190506102fb565b50505050905090810190601f1680156103435780820380516001836020036101000a031916815260200191505b5083810382528b818151815260200191508051906020019080838360005b8381101561037c578082015181840152602081019050610361565b50505050905090810190601f1680156103a95780820380516001836020036101000a031916815260200191505b509c5050505050505050505050505060405180910390f35b6103c9610aa9565b6040518082815260200191505060405180910390f35b61040b600480360360208110156103f557600080fd5b8101908080359060200190929190505050610aaf565b604051808581526020018473ffffffffffffffffffffffffffffffffffffffff1673ffffffffffffffffffffffffffffffffffffffff1681526020018060200183151515158152602001828103825284818151815260200191508051906020019080838360005b8381101561048d578082015181840152602081019050610472565b50505050905090810190601f1680156104ba5780820380516001836020036101000a031916815260200191505b509550505050505060405180910390f35b61050d600480360360208110156104e157600080fd5b81019080803573ffffffffffffffffffffffffffffffffffffffff169060200190929190505050610ba4565b6040518082815260200191505060405180910390f35b6105516004803603602081101561053957600080fd5b81019080803515159060200190929190505050610bbc565b005b61055b610cc9565b6040518082815260200191505060405180910390f35b610579610ccf565b6040518082815260200191505060405180910390f35b6105c5600480360360408110156105a557600080fd5b810190808035906020019092919080359060200190929190505050610cd5565b005b6105cf610e0e565b6040518082815260200191505060405180910390f35b610631600480360360408110156105fb57600080fd5b81019080803573ffffffffffffffffffffffffffffffffffffffff16906020019092919080359060200190929190505050610e14565b6040518082815260200191505060405180910390f35b6106936004803603604081101561065d57600080fd5b81019080803573ffffffffffffffffffffffffffffffffffffffff16906020019092919080359060200190929190505050610e42565b6040518082815260200191505060405180910390f35b60008054600181600116156101000203166002900480601f01602080910402602001604051908101604052809291908181526020018280546001816001161561010002031660029004801561073f5780601f106107145761010080835404028352916020019161073f565b820191906000526020600020905b81548152906001019060200180831161072257829003601f168201915b505050505081565b600073ffffffffffffffffffffffffffffffffffffffff163373ffffffffffffffffffffffffffffffffffffffff16141561078157600080fd5b600160008154809291906001019190505550604051806080016040528060015481526020013373ffffffffffffffffffffffffffffffffffffffff168152602001828152602001600015158152506002600060015481526020019081526020016000206000820151816000015560208201518160010160006101000a81548173ffffffffffffffffffffffffffffffffffffffff021916908373ffffffffffffffffffffffffffffffffffffffff1602179055506040820151816002019080519060200190610851929190610e70565b5060608201518160030160006101000a81548160ff021916908315150217905550905050600154600360003373ffffffffffffffffffffffffffffffffffffffff1673ffffffffffffffffffffffffffffffffffffffff1681526020019081526020016000208190555050565b6005602052806000526040600020600091509050806000015490806001018054600181600116156101000203166002900480601f0160208091040260200160405190810160405280929190818152602001828054600181600116156101000203166002900480156109705780601f1061094557610100808354040283529160200191610970565b820191906000526020600020905b81548152906001019060200180831161095357829003601f168201915b505050505090806002018054600181600116156101000203166002900480601f016020809104026020016040519081016040528092919081815260200182805460018160011615610100020316600290048015610a0e5780601f106109e357610100808354040283529160200191610a0e565b820191906000526020600020905b8154815290600101906020018083116109f157829003601f168201915b5050505050908060030154908060040154908060050160009054906101000a900460ff16908060050160019054906101000a900460ff16908060050160029054906101000a900473ffffffffffffffffffffffffffffffffffffffff16908060060160009054906101000a900473ffffffffffffffffffffffffffffffffffffffff16908060060160149054906101000a900460ff1690508a565b60045481565b60026020528060005260406000206000915090508060000154908060010160009054906101000a900473ffffffffffffffffffffffffffffffffffffffff1690806002018054600181600116156101000203166002900480601f016020809104026020016040519081016040528092919081815260200182805460018160011615610100020316600290048015610b875780601f10610b5c57610100808354040283529160200191610b87565b820191906000526020600020905b815481529060010190602001808311610b6a57829003601f168201915b5050505050908060030160009054906101000a900460ff16905084565b60036020528060005260406000206000915090505481565b600073ffffffffffffffffffffffffffffffffffffffff163373ffffffffffffffffffffffffffffffffffffffff161415610bf657600080fd5b600060026000600360003373ffffffffffffffffffffffffffffffffffffffff1673ffffffffffffffffffffffffffffffffffffffff168152602001908152602001600020548152602001908152602001600020600001541415610c5957600080fd5b8060026000600360003373ffffffffffffffffffffffffffffffffffffffff1673ffffffffffffffffffffffffffffffffffffffff16815260200190815260200160002054815260200190815260200160002060030160006101000a81548160ff02191690831515021790555050565b60015481565b60085481565b60008214158015610ce857506001548211155b610cf157600080fd5b60008114158015610d0457506001548111155b610d0d57600080fd5b600060026000848152602001908152602001600020600001541415610d3157600080fd5b600060026000838152602001908152602001600020600001541415610d5557600080fd5b600073ffffffffffffffffffffffffffffffffffffffff163373ffffffffffffffffffffffffffffffffffffffff161415610d8f57600080fd5b600660008154809291906001019190505550600760003373ffffffffffffffffffffffffffffffffffffffff1673ffffffffffffffffffffffffffffffffffffffff1681526020019081526020016000208190806001815401808255809150509060018203906000526020600020016000909192909190915055505050565b60065481565b60076020528160005260406000208181548110610e2d57fe5b90600052602060002001600091509150505481565b60096020528160005260406000208181548110610e5b57fe5b90600052602060002001600091509150505481565b828054600181600116156101000203166002900490600052602060002090601f016020900481019282601f10610eb157805160ff1916838001178555610edf565b82800160010185558215610edf579182015b82811115610ede578251825591602001919060010190610ec3565b5b509050610eec9190610ef0565b5090565b610f1291905b80821115610f0e576000816000905550600101610ef6565b5090565b9056fea265627a7a723158201e602742ebf1813b21521c21665a4971a6909d7a32a75182f94ab56b8307976864736f6c63430005100032",
  "source": "// SPDX-License-Identifier: MIT\npragma solidity >=0.4.21 <0.7.0;\n\ncontract PinkyPromise {\n    struct PinkyUserRecord {\n        uint256 id;\n        address addr;\n        string name;\n        // indicates whether only \"known\" users can create promises with this user as recipient\n        bool allowOnlyKnownUserPromises;\n    }\n\n    struct PinkyPromiseRecord {\n        uint256 id;\n        string title;\n        string description;\n        uint256 createdAt;\n        // the time before which both users must mark the promise as complete. after this time, neither user can update\n        // the promise completion status\n        uint256 deadline;\n        // indicates whether the sharing user has marked the promise as complete\n        bool completedBySharingUser;\n        // indicates whether the receiving user has marked the promise as complete\n        bool completedByReceivingUser;\n        // the user who created the promise\n        address sharingUser;\n        // the user with who the promise must be shared\n        address receivingUser;\n        // indicates whether the promise should be visible only to the sharing and receiving users\n        bool isPrivatePromise;\n    }\n\n    string public name;\n\n    uint256 public usersCount = 0;\n    mapping(uint256 => PinkyUserRecord) public users;\n    mapping(address => uint256) public userIds;\n\n    uint256 public promiseCount = 0;\n    mapping(uint256 => PinkyPromiseRecord) public promises;\n\n    uint256 public knownUsersCount;\n    // list of user ids marked as \"known\"\n    mapping(address => uint256[]) public knownUsersByUserAddr;\n\n    uint256 public userPromiseIdsCount;\n    // list of promises created by the user\n    mapping(address => uint256[]) public promiseIdsByUserAddr;\n\n    constructor() public {\n        name = \"PinkyPromise\";\n    }\n\n    function addUser(string memory _name) public {\n        require(msg.sender != address(0));\n        usersCount++;\n        users[usersCount] = PinkyUserRecord(\n            usersCount,\n            msg.sender,\n            _name,\n            false\n        );\n        userIds[msg.sender] = usersCount;\n    }\n\n    function addKnownUser(uint256 _userId, uint256 _knownUserId) public {\n        require(_userId != 0 && _userId <= usersCount);\n        require(_knownUserId != 0 && _knownUserId <= usersCount);\n        require(users[_userId].id != 0);\n        require(users[_knownUserId].id != 0);\n        require(msg.sender != address(0));\n\n        knownUsersCount++;\n        knownUsersByUserAddr[msg.sender].push(_knownUserId);\n    }\n\n    function setUserPromiseVisibility(bool _allowOnlyKnownUserPromises) public {\n        require(msg.sender != address(0));\n        require(users[userIds[msg.sender]].id != 0);\n\n        users[userIds[msg.sender]]\n            .allowOnlyKnownUserPromises = _allowOnlyKnownUserPromises;\n    }\n}\n",
  "sourcePath": "/Users/shanmni/Desktop/blockchain-assignment-pinky-promise/contracts/PinkyPromise.sol",
  "compiler": {
    "name": "solc",
    "version": "0.5.16+commit.9c3226ce.Emscripten.clang"
  },
  "schemaVersion": "3.4.3",
  "updatedAt": "2021-10-29T03:57:00.745Z",
  "networkType": "ethereum",
  "devdoc": {
    "methods": {}
  },
  "userdoc": {
    "methods": {}
  }
}