{
  "contractName": "PinkyPromise",
  "abi": [
    {
      "inputs": [],
      "payable": false,
      "stateMutability": "nonpayable",
      "type": "constructor"
    },
    {
      "anonymous": false,
      "inputs": [
        {
          "indexed": false,
          "internalType": "uint256",
          "name": "promiseId",
          "type": "uint256"
        },
        {
          "indexed": false,
          "internalType": "uint256",
          "name": "completedByReceivingUserAt",
          "type": "uint256"
        }
      ],
      "name": "PinkyPromiseCompletedByReceivingUser",
      "type": "event"
    },
    {
      "anonymous": false,
      "inputs": [
        {
          "indexed": false,
          "internalType": "uint256",
          "name": "promiseId",
          "type": "uint256"
        },
        {
          "indexed": false,
          "internalType": "uint256",
          "name": "completedBySharingUserAt",
          "type": "uint256"
        }
      ],
      "name": "PinkyPromiseCompletedBySharingUser",
      "type": "event"
    },
    {
      "anonymous": false,
      "inputs": [
        {
          "indexed": true,
          "internalType": "uint256",
          "name": "id",
          "type": "uint256"
        },
        {
          "indexed": false,
          "internalType": "string",
          "name": "title",
          "type": "string"
        },
        {
          "indexed": false,
          "internalType": "string",
          "name": "description",
          "type": "string"
        },
        {
          "indexed": false,
          "internalType": "uint256",
          "name": "createdAt",
          "type": "uint256"
        },
        {
          "indexed": true,
          "internalType": "uint256",
          "name": "sharingUserId",
          "type": "uint256"
        },
        {
          "indexed": false,
          "internalType": "bool",
          "name": "completedBySharingUser",
          "type": "bool"
        },
        {
          "indexed": false,
          "internalType": "uint256",
          "name": "completedBySharingUserAt",
          "type": "uint256"
        },
        {
          "indexed": true,
          "internalType": "uint256",
          "name": "receivingUserId",
          "type": "uint256"
        },
        {
          "indexed": false,
          "internalType": "bool",
          "name": "completedByReceivingUser",
          "type": "bool"
        },
        {
          "indexed": false,
          "internalType": "uint256",
          "name": "completedByReceivingUserAt",
          "type": "uint256"
        },
        {
          "indexed": false,
          "internalType": "uint256",
          "name": "expiresIn",
          "type": "uint256"
        }
      ],
      "name": "PinkyPromiseRecordAdded",
      "type": "event"
    },
    {
      "anonymous": false,
      "inputs": [
        {
          "indexed": true,
          "internalType": "uint256",
          "name": "id",
          "type": "uint256"
        },
        {
          "indexed": true,
          "internalType": "address",
          "name": "addr",
          "type": "address"
        },
        {
          "indexed": false,
          "internalType": "string",
          "name": "name",
          "type": "string"
        },
        {
          "indexed": false,
          "internalType": "uint256",
          "name": "totalPromises",
          "type": "uint256"
        }
      ],
      "name": "PinkyUserRecordAdded",
      "type": "event"
    },
    {
      "constant": true,
      "inputs": [],
      "name": "name",
      "outputs": [
        {
          "internalType": "string",
          "name": "",
          "type": "string"
        }
      ],
      "payable": false,
      "stateMutability": "view",
      "type": "function"
    },
    {
      "constant": true,
      "inputs": [
        {
          "internalType": "uint256",
          "name": "",
          "type": "uint256"
        }
      ],
      "name": "promises",
      "outputs": [
        {
          "internalType": "uint256",
          "name": "id",
          "type": "uint256"
        },
        {
          "internalType": "string",
          "name": "title",
          "type": "string"
        },
        {
          "internalType": "string",
          "name": "description",
          "type": "string"
        },
        {
          "internalType": "uint256",
          "name": "createdAt",
          "type": "uint256"
        },
        {
          "internalType": "uint256",
          "name": "sharingUserId",
          "type": "uint256"
        },
        {
          "internalType": "bool",
          "name": "completedBySharingUser",
          "type": "bool"
        },
        {
          "internalType": "uint256",
          "name": "completedBySharingUserAt",
          "type": "uint256"
        },
        {
          "internalType": "uint256",
          "name": "receivingUserId",
          "type": "uint256"
        },
        {
          "internalType": "bool",
          "name": "completedByReceivingUser",
          "type": "bool"
        },
        {
          "internalType": "uint256",
          "name": "completedByReceivingUserAt",
          "type": "uint256"
        },
        {
          "internalType": "uint256",
          "name": "expiresIn",
          "type": "uint256"
        }
      ],
      "payable": false,
      "stateMutability": "view",
      "type": "function"
    },
    {
      "constant": true,
      "inputs": [],
      "name": "promisesCount",
      "outputs": [
        {
          "internalType": "uint256",
          "name": "",
          "type": "uint256"
        }
      ],
      "payable": false,
      "stateMutability": "view",
      "type": "function"
    },
    {
      "constant": true,
      "inputs": [
        {
          "internalType": "address",
          "name": "",
          "type": "address"
        }
      ],
      "name": "userIdByAddr",
      "outputs": [
        {
          "internalType": "uint256",
          "name": "",
          "type": "uint256"
        }
      ],
      "payable": false,
      "stateMutability": "view",
      "type": "function"
    },
    {
      "constant": true,
      "inputs": [
        {
          "internalType": "uint256",
          "name": "",
          "type": "uint256"
        }
      ],
      "name": "users",
      "outputs": [
        {
          "internalType": "uint256",
          "name": "id",
          "type": "uint256"
        },
        {
          "internalType": "address",
          "name": "addr",
          "type": "address"
        },
        {
          "internalType": "string",
          "name": "name",
          "type": "string"
        },
        {
          "internalType": "uint256",
          "name": "totalPromises",
          "type": "uint256"
        }
      ],
      "payable": false,
      "stateMutability": "view",
      "type": "function"
    },
    {
      "constant": true,
      "inputs": [],
      "name": "usersCount",
      "outputs": [
        {
          "internalType": "uint256",
          "name": "",
          "type": "uint256"
        }
      ],
      "payable": false,
      "stateMutability": "view",
      "type": "function"
    },
    {
      "constant": true,
      "inputs": [],
      "name": "getCurrentUser",
      "outputs": [
        {
          "components": [
            {
              "internalType": "uint256",
              "name": "id",
              "type": "uint256"
            },
            {
              "internalType": "address",
              "name": "addr",
              "type": "address"
            },
            {
              "internalType": "string",
              "name": "name",
              "type": "string"
            },
            {
              "internalType": "uint256",
              "name": "totalPromises",
              "type": "uint256"
            }
          ],
          "internalType": "struct PinkyPromise.PinkyUserRecord",
          "name": "",
          "type": "tuple"
        }
      ],
      "payable": false,
      "stateMutability": "view",
      "type": "function"
    },
    {
      "constant": false,
      "inputs": [
        {
          "internalType": "string",
          "name": "_name",
          "type": "string"
        }
      ],
      "name": "addUser",
      "outputs": [],
      "payable": false,
      "stateMutability": "nonpayable",
      "type": "function"
    },
    {
      "constant": true,
      "inputs": [],
      "name": "getViewableUsers",
      "outputs": [
        {
          "components": [
            {
              "internalType": "uint256",
              "name": "id",
              "type": "uint256"
            },
            {
              "internalType": "address",
              "name": "addr",
              "type": "address"
            },
            {
              "internalType": "string",
              "name": "name",
              "type": "string"
            },
            {
              "internalType": "uint256",
              "name": "totalPromises",
              "type": "uint256"
            }
          ],
          "internalType": "struct PinkyPromise.PinkyUserRecord[]",
          "name": "",
          "type": "tuple[]"
        }
      ],
      "payable": false,
      "stateMutability": "view",
      "type": "function"
    },
    {
      "constant": false,
      "inputs": [
        {
          "internalType": "string",
          "name": "_title",
          "type": "string"
        },
        {
          "internalType": "string",
          "name": "_description",
          "type": "string"
        },
        {
          "internalType": "uint256",
          "name": "_receivingUserId",
          "type": "uint256"
        },
        {
          "internalType": "uint256",
          "name": "_expiresIn",
          "type": "uint256"
        }
      ],
      "name": "addPromise",
      "outputs": [],
      "payable": false,
      "stateMutability": "nonpayable",
      "type": "function"
    },
    {
      "constant": false,
      "inputs": [
        {
          "internalType": "uint256",
          "name": "_promiseId",
          "type": "uint256"
        }
      ],
      "name": "completePromiseAsSharingUser",
      "outputs": [],
      "payable": false,
      "stateMutability": "nonpayable",
      "type": "function"
    },
    {
      "constant": false,
      "inputs": [
        {
          "internalType": "uint256",
          "name": "_promiseId",
          "type": "uint256"
        }
      ],
      "name": "completePromiseAsReceivingUser",
      "outputs": [],
      "payable": false,
      "stateMutability": "nonpayable",
      "type": "function"
    },
    {
      "constant": true,
      "inputs": [],
      "name": "getPromisesByUserId",
      "outputs": [
        {
          "components": [
            {
              "internalType": "uint256",
              "name": "id",
              "type": "uint256"
            },
            {
              "internalType": "string",
              "name": "title",
              "type": "string"
            },
            {
              "internalType": "string",
              "name": "description",
              "type": "string"
            },
            {
              "internalType": "uint256",
              "name": "createdAt",
              "type": "uint256"
            },
            {
              "internalType": "uint256",
              "name": "sharingUserId",
              "type": "uint256"
            },
            {
              "internalType": "bool",
              "name": "completedBySharingUser",
              "type": "bool"
            },
            {
              "internalType": "uint256",
              "name": "completedBySharingUserAt",
              "type": "uint256"
            },
            {
              "internalType": "uint256",
              "name": "receivingUserId",
              "type": "uint256"
            },
            {
              "internalType": "bool",
              "name": "completedByReceivingUser",
              "type": "bool"
            },
            {
              "internalType": "uint256",
              "name": "completedByReceivingUserAt",
              "type": "uint256"
            },
            {
              "internalType": "uint256",
              "name": "expiresIn",
              "type": "uint256"
            }
          ],
          "internalType": "struct PinkyPromise.PinkyPromiseRecord[]",
          "name": "",
          "type": "tuple[]"
        }
      ],
      "payable": false,
      "stateMutability": "view",
      "type": "function"
    },
    {
      "constant": true,
      "inputs": [],
      "name": "getAllPromisesViewableByUser",
      "outputs": [
        {
          "components": [
            {
              "internalType": "uint256",
              "name": "id",
              "type": "uint256"
            },
            {
              "internalType": "string",
              "name": "title",
              "type": "string"
            },
            {
              "internalType": "string",
              "name": "description",
              "type": "string"
            },
            {
              "internalType": "uint256",
              "name": "createdAt",
              "type": "uint256"
            },
            {
              "internalType": "uint256",
              "name": "sharingUserId",
              "type": "uint256"
            },
            {
              "internalType": "bool",
              "name": "completedBySharingUser",
              "type": "bool"
            },
            {
              "internalType": "uint256",
              "name": "completedBySharingUserAt",
              "type": "uint256"
            },
            {
              "internalType": "uint256",
              "name": "receivingUserId",
              "type": "uint256"
            },
            {
              "internalType": "bool",
              "name": "completedByReceivingUser",
              "type": "bool"
            },
            {
              "internalType": "uint256",
              "name": "completedByReceivingUserAt",
              "type": "uint256"
            },
            {
              "internalType": "uint256",
              "name": "expiresIn",
              "type": "uint256"
            }
          ],
          "internalType": "struct PinkyPromise.PinkyPromiseRecord[]",
          "name": "",
          "type": "tuple[]"
        }
      ],
      "payable": false,
      "stateMutability": "view",
      "type": "function"
    }
  ],
  "bytecode": "0x6080604052600060015560006004553480156200001b57600080fd5b506040518060400160405280600c81526020017f50696e6b7950726f6d6973650000000000000000000000000000000000000000815250600090805190602001906200006992919062000070565b506200011f565b828054600181600116156101000203166002900490600052602060002090601f016020900481019282601f10620000b357805160ff1916838001178555620000e4565b82800160010185558215620000e4579182015b82811115620000e3578251825591602001919060010190620000c6565b5b509050620000f39190620000f7565b5090565b6200011c91905b8082111562000118576000816000905550600101620000fe565b5090565b90565b612473806200012f6000396000f3fe608060405234801561001057600080fd5b50600436106100ea5760003560e01c806343ae37c31161008c57806392a9a1fc1161006657806392a9a1fc14610258578063a852904114610276578063b0083c7614610292578063e4498b62146102b0576100ea565b806343ae37c3146101fe57806362b8bb851461021c5780636ba13a821461023a576100ea565b80631f06c859116100c85780631f06c85914610145578063365b98b21461017f5780633c856721146101b2578063411dee92146101e2576100ea565b806306fdde03146100ef57806317d0c32e1461010d57806318b8275a14610129575b600080fd5b6100f76102ce565b6040516101049190612009565b60405180910390f35b61012760048036036101229190810190611b27565b61036c565b005b610143600480360361013e9190810190611ae6565b6105de565b005b61015f600480360361015a9190810190611bba565b6107dd565b6040516101769b9a99989796959493929190612170565b60405180910390f35b61019960048036036101949190810190611bba565b610981565b6040516101a99493929190612124565b60405180910390f35b6101cc60048036036101c79190810190611abd565b610a69565b6040516101d99190612109565b60405180910390f35b6101fc60048036036101f79190810190611bba565b610a81565b005b610206610c2e565b60405161021391906120e7565b60405180910390f35b610224610dde565b6040516102319190611fc5565b60405180910390f35b61024261116f565b60405161024f9190612109565b60405180910390f35b610260611175565b60405161026d9190611fe7565b60405180910390f35b610290600480360361028b9190810190611bba565b61140f565b005b61029a6115bc565b6040516102a79190612109565b60405180910390f35b6102b86115c2565b6040516102c59190611fc5565b60405180910390f35b60008054600181600116156101000203166002900480601f0160208091040260200160405190810160405280929190818152602001828054600181600116156101000203166002900480156103645780601f1061033957610100808354040283529160200191610364565b820191906000526020600020905b81548152906001019060200180831161034757829003601f168201915b505050505081565b6000600360003373ffffffffffffffffffffffffffffffffffffffff1673ffffffffffffffffffffffffffffffffffffffff168152602001908152602001600020549050600073ffffffffffffffffffffffffffffffffffffffff163373ffffffffffffffffffffffffffffffffffffffff1614156103ea57600080fd5b600083141580156103fd57506001548311155b61040657600080fd5b6000811415801561041957506001548111155b61042257600080fd5b600460008154809291906001019190505550600260008281526020019081526020016000206003016000815480929190600101919050555060405180610160016040528060045481526020018681526020018581526020014281526020018281526020016000151581526020016000815260200184815260200160001515815260200160008152602001838152506005600060045481526020019081526020016000206000820151816000015560208201518160010190805190602001906104eb9291906118c0565b5060408201518160020190805190602001906105089291906118c0565b50606082015181600301556080820151816004015560a08201518160050160006101000a81548160ff02191690831515021790555060c0820151816006015560e082015181600701556101008201518160080160006101000a81548160ff021916908315150217905550610120820151816009015561014082015181600a015590505082816004547fd0239fc874b40137217cbd53a39eee7e6cd4f033481d978b18a53a4ed55816cd8888426000806000808c6040516105cf98979695949392919061205b565b60405180910390a45050505050565b600073ffffffffffffffffffffffffffffffffffffffff163373ffffffffffffffffffffffffffffffffffffffff16141561061857600080fd5b6000600360003373ffffffffffffffffffffffffffffffffffffffff1673ffffffffffffffffffffffffffffffffffffffff168152602001908152602001600020541461066457600080fd5b600160008154809291906001019190505550604051806080016040528060015481526020013373ffffffffffffffffffffffffffffffffffffffff16815260200182815260200160008152506002600060015481526020019081526020016000206000820151816000015560208201518160010160006101000a81548173ffffffffffffffffffffffffffffffffffffffff021916908373ffffffffffffffffffffffffffffffffffffffff16021790555060408201518160020190805190602001906107329291906118c0565b5060608201518160030155905050600154600360003373ffffffffffffffffffffffffffffffffffffffff1673ffffffffffffffffffffffffffffffffffffffff168152602001908152602001600020819055503373ffffffffffffffffffffffffffffffffffffffff166001547f2caf956475a78404b8a9968f87d744ca11867bebdc13450394c0ddbeefa091468360006040516107d292919061202b565b60405180910390a350565b6005602052806000526040600020600091509050806000015490806001018054600181600116156101000203166002900480601f01602080910402602001604051908101604052809291908181526020018280546001816001161561010002031660029004801561088f5780601f106108645761010080835404028352916020019161088f565b820191906000526020600020905b81548152906001019060200180831161087257829003601f168201915b505050505090806002018054600181600116156101000203166002900480601f01602080910402602001604051908101604052809291908181526020018280546001816001161561010002031660029004801561092d5780601f106109025761010080835404028352916020019161092d565b820191906000526020600020905b81548152906001019060200180831161091057829003601f168201915b5050505050908060030154908060040154908060050160009054906101000a900460ff16908060060154908060070154908060080160009054906101000a900460ff169080600901549080600a015490508b565b60026020528060005260406000206000915090508060000154908060010160009054906101000a900473ffffffffffffffffffffffffffffffffffffffff1690806002018054600181600116156101000203166002900480601f016020809104026020016040519081016040528092919081815260200182805460018160011615610100020316600290048015610a595780601f10610a2e57610100808354040283529160200191610a59565b820191906000526020600020905b815481529060010190602001808311610a3c57829003601f168201915b5050505050908060030154905084565b60036020528060005260406000206000915090505481565b6000600360003373ffffffffffffffffffffffffffffffffffffffff1673ffffffffffffffffffffffffffffffffffffffff16815260200190815260200160002054905060008214158015610ad857506004548211155b610ae157600080fd5b60008114158015610af457506001548111155b610afd57600080fd5b80600560008481526020019081526020016000206007015414610b1f57600080fd5b600060056000848152602001908152602001600020600a01541480610b5a57504260056000848152602001908152602001600020600a015410155b610b6357600080fd5b6005600083815260200190815260200160002060080160009054906101000a900460ff1615610b9157600080fd5b60016005600084815260200190815260200160002060080160006101000a81548160ff0219169083151502179055504260056000848152602001908152602001600020600901819055507f70c819723794cda70fc6b095b14c81a4685061c1c3660f82348867380686a746826005600085815260200190815260200160002060090154604051610c22929190612229565b60405180910390a15050565b610c36611940565b600073ffffffffffffffffffffffffffffffffffffffff163373ffffffffffffffffffffffffffffffffffffffff161415610c7057600080fd5b60026000600360003373ffffffffffffffffffffffffffffffffffffffff1673ffffffffffffffffffffffffffffffffffffffff168152602001908152602001600020548152602001908152602001600020604051806080016040529081600082015481526020016001820160009054906101000a900473ffffffffffffffffffffffffffffffffffffffff1673ffffffffffffffffffffffffffffffffffffffff1673ffffffffffffffffffffffffffffffffffffffff168152602001600282018054600181600116156101000203166002900480601f016020809104026020016040519081016040528092919081815260200182805460018160011615610100020316600290048015610dc65780601f10610d9b57610100808354040283529160200191610dc6565b820191906000526020600020905b815481529060010190602001808311610da957829003601f168201915b50505050508152602001600382015481525050905090565b60606000600360003373ffffffffffffffffffffffffffffffffffffffff1673ffffffffffffffffffffffffffffffffffffffff168152602001908152602001600020549050600073ffffffffffffffffffffffffffffffffffffffff163373ffffffffffffffffffffffffffffffffffffffff161415610e5e57600080fd5b60008090506000600190505b6004548111610ec7578260056000838152602001908152602001600020600401541480610eac5750826005600083815260200190815260200160002060070154145b15610eba5781806001019250505b8080600101915050610e6a565b50606081604051908082528060200260200182016040528015610f0457816020015b610ef161197e565b815260200190600190039081610ee95790505b50905060008090506000600190505b6004548111611164578460056000838152602001908152602001600020600401541480610f555750846005600083815260200190815260200160002060070154145b1561115757600560008281526020019081526020016000206040518061016001604052908160008201548152602001600182018054600181600116156101000203166002900480601f01602080910402602001604051908101604052809291908181526020018280546001816001161561010002031660029004801561101c5780601f10610ff15761010080835404028352916020019161101c565b820191906000526020600020905b815481529060010190602001808311610fff57829003601f168201915b50505050508152602001600282018054600181600116156101000203166002900480601f0160208091040260200160405190810160405280929190818152602001828054600181600116156101000203166002900480156110be5780601f10611093576101008083540402835291602001916110be565b820191906000526020600020905b8154815290600101906020018083116110a157829003601f168201915b5050505050815260200160038201548152602001600482015481526020016005820160009054906101000a900460ff1615151515815260200160068201548152602001600782015481526020016008820160009054906101000a900460ff1615151515815260200160098201548152602001600a8201548152505083838060010194508151811061114b57fe5b60200260200101819052505b8080600101915050610f13565b508194505050505090565b60015481565b6060600073ffffffffffffffffffffffffffffffffffffffff163373ffffffffffffffffffffffffffffffffffffffff1614156111b157600080fd5b6000600360003373ffffffffffffffffffffffffffffffffffffffff1673ffffffffffffffffffffffffffffffffffffffff16815260200190815260200160002054905060008090506000600190505b600154811161123d57826002600083815260200190815260200160002060000154146112305781806001019250505b8080600101915050611201565b5060608160405190808252806020026020018201604052801561127a57816020015b6112676119dc565b81526020019060019003908161125f5790505b50905060008090506000600190505b600154811161140457846002600083815260200190815260200160002060000154146113f75760026000828152602001908152602001600020604051806080016040529081600082015481526020016001820160009054906101000a900473ffffffffffffffffffffffffffffffffffffffff1673ffffffffffffffffffffffffffffffffffffffff1673ffffffffffffffffffffffffffffffffffffffff168152602001600282018054600181600116156101000203166002900480601f0160208091040260200160405190810160405280929190818152602001828054600181600116156101000203166002900480156113c65780601f1061139b576101008083540402835291602001916113c6565b820191906000526020600020905b8154815290600101906020018083116113a957829003601f168201915b505050505081526020016003820154815250508383806001019450815181106113eb57fe5b60200260200101819052505b8080600101915050611289565b508194505050505090565b6000600360003373ffffffffffffffffffffffffffffffffffffffff1673ffffffffffffffffffffffffffffffffffffffff1681526020019081526020016000205490506000821415801561146657506004548211155b61146f57600080fd5b6000811415801561148257506001548111155b61148b57600080fd5b806005600084815260200190815260200160002060040154146114ad57600080fd5b600060056000848152602001908152602001600020600a015414806114e857504260056000848152602001908152602001600020600a015410155b6114f157600080fd5b6005600083815260200190815260200160002060050160009054906101000a900460ff161561151f57600080fd5b60016005600084815260200190815260200160002060050160006101000a81548160ff0219169083151502179055504260056000848152602001908152602001600020600601819055507fb82b4cf118942909e6a80fca586abe40528868b24a411b7cdd7d1b044712df808260056000858152602001908152602001600020600601546040516115b0929190612229565b60405180910390a15050565b60045481565b60606000600360003373ffffffffffffffffffffffffffffffffffffffff1673ffffffffffffffffffffffffffffffffffffffff1681526020019081526020016000205490506000811415801561161b57506001548111155b61162457600080fd5b60008090506060600260008481526020019081526020016000206003015460405190808252806020026020018201604052801561167b57816020015b61166861197e565b8152602001906001900390816116605790505b5090506000600190505b60045481116118b65783600560008381526020019081526020016000206004015414156118a957600560008281526020019081526020016000206040518061016001604052908160008201548152602001600182018054600181600116156101000203166002900480601f01602080910402602001604051908101604052809291908181526020018280546001816001161561010002031660029004801561176e5780601f106117435761010080835404028352916020019161176e565b820191906000526020600020905b81548152906001019060200180831161175157829003601f168201915b50505050508152602001600282018054600181600116156101000203166002900480601f0160208091040260200160405190810160405280929190818152602001828054600181600116156101000203166002900480156118105780601f106117e557610100808354040283529160200191611810565b820191906000526020600020905b8154815290600101906020018083116117f357829003601f168201915b5050505050815260200160038201548152602001600482015481526020016005820160009054906101000a900460ff1615151515815260200160068201548152602001600782015481526020016008820160009054906101000a900460ff1615151515815260200160098201548152602001600a8201548152505082848060010195508151811061189d57fe5b60200260200101819052505b8080600101915050611685565b5080935050505090565b828054600181600116156101000203166002900490600052602060002090601f016020900481019282601f1061190157805160ff191683800117855561192f565b8280016001018555821561192f579182015b8281111561192e578251825591602001919060010190611913565b5b50905061193c9190611a1a565b5090565b604051806080016040528060008152602001600073ffffffffffffffffffffffffffffffffffffffff16815260200160608152602001600081525090565b6040518061016001604052806000815260200160608152602001606081526020016000815260200160008152602001600015158152602001600081526020016000815260200160001515815260200160008152602001600081525090565b604051806080016040528060008152602001600073ffffffffffffffffffffffffffffffffffffffff16815260200160608152602001600081525090565b611a3c91905b80821115611a38576000816000905550600101611a20565b5090565b90565b600081359050611a4e81612402565b92915050565b600082601f830112611a6557600080fd5b8135611a78611a738261227f565b612252565b91508082526020830160208301858383011115611a9457600080fd5b611a9f8382846123af565b50505092915050565b600081359050611ab781612419565b92915050565b600060208284031215611acf57600080fd5b6000611add84828501611a3f565b91505092915050565b600060208284031215611af857600080fd5b600082013567ffffffffffffffff811115611b1257600080fd5b611b1e84828501611a54565b91505092915050565b60008060008060808587031215611b3d57600080fd5b600085013567ffffffffffffffff811115611b5757600080fd5b611b6387828801611a54565b945050602085013567ffffffffffffffff811115611b8057600080fd5b611b8c87828801611a54565b9350506040611b9d87828801611aa8565b9250506060611bae87828801611aa8565b91505092959194509250565b600060208284031215611bcc57600080fd5b6000611bda84828501611aa8565b91505092915050565b6000611bef8383611deb565b905092915050565b6000611c038383611f44565b905092915050565b611c1481612355565b82525050565b611c2381612355565b82525050565b6000611c34826122cb565b611c3e8185612311565b935083602082028501611c50856122ab565b8060005b85811015611c8c5784840389528151611c6d8582611be3565b9450611c78836122f7565b925060208a01995050600181019050611c54565b50829750879550505050505092915050565b6000611ca9826122d6565b611cb38185612322565b935083602082028501611cc5856122bb565b8060005b85811015611d015784840389528151611ce28582611bf7565b9450611ced83612304565b925060208a01995050600181019050611cc9565b50829750879550505050505092915050565b611d1c81612367565b82525050565b611d2b81612367565b82525050565b611d3a8161239d565b82525050565b6000611d4b826122ec565b611d558185612344565b9350611d658185602086016123be565b611d6e816123f1565b840191505092915050565b6000611d84826122e1565b611d8e8185612333565b9350611d9e8185602086016123be565b611da7816123f1565b840191505092915050565b6000611dbd826122e1565b611dc78185612344565b9350611dd78185602086016123be565b611de0816123f1565b840191505092915050565b600061016083016000830151611e046000860182611fa7565b5060208301518482036020860152611e1c8282611d79565b91505060408301518482036040860152611e368282611d79565b9150506060830151611e4b6060860182611fa7565b506080830151611e5e6080860182611fa7565b5060a0830151611e7160a0860182611d13565b5060c0830151611e8460c0860182611fa7565b5060e0830151611e9760e0860182611fa7565b50610100830151611eac610100860182611d13565b50610120830151611ec1610120860182611fa7565b50610140830151611ed6610140860182611fa7565b508091505092915050565b6000608083016000830151611ef96000860182611fa7565b506020830151611f0c6020860182611c0b565b5060408301518482036040860152611f248282611d79565b9150506060830151611f396060860182611fa7565b508091505092915050565b6000608083016000830151611f5c6000860182611fa7565b506020830151611f6f6020860182611c0b565b5060408301518482036040860152611f878282611d79565b9150506060830151611f9c6060860182611fa7565b508091505092915050565b611fb081612393565b82525050565b611fbf81612393565b82525050565b60006020820190508181036000830152611fdf8184611c29565b905092915050565b600060208201905081810360008301526120018184611c9e565b905092915050565b600060208201905081810360008301526120238184611db2565b905092915050565b600060408201905081810360008301526120458185611d40565b90506120546020830184611d31565b9392505050565b6000610100820190508181036000830152612076818b611d40565b9050818103602083015261208a818a611d40565b90506120996040830189611fb6565b6120a66060830188611d22565b6120b36080830187611d31565b6120c060a0830186611d22565b6120cd60c0830185611d31565b6120da60e0830184611fb6565b9998505050505050505050565b600060208201905081810360008301526121018184611ee1565b905092915050565b600060208201905061211e6000830184611fb6565b92915050565b60006080820190506121396000830187611fb6565b6121466020830186611c1a565b81810360408301526121588185611db2565b90506121676060830184611fb6565b95945050505050565b600061016082019050612186600083018e611fb6565b8181036020830152612198818d611db2565b905081810360408301526121ac818c611db2565b90506121bb606083018b611fb6565b6121c8608083018a611fb6565b6121d560a0830189611d22565b6121e260c0830188611fb6565b6121ef60e0830187611fb6565b6121fd610100830186611d22565b61220b610120830185611fb6565b612219610140830184611fb6565b9c9b505050505050505050505050565b600060408201905061223e6000830185611fb6565b61224b6020830184611fb6565b9392505050565b6000604051905081810181811067ffffffffffffffff8211171561227557600080fd5b8060405250919050565b600067ffffffffffffffff82111561229657600080fd5b601f19601f8301169050602081019050919050565b6000819050602082019050919050565b6000819050602082019050919050565b600081519050919050565b600081519050919050565b600081519050919050565b600081519050919050565b6000602082019050919050565b6000602082019050919050565b600082825260208201905092915050565b600082825260208201905092915050565b600082825260208201905092915050565b600082825260208201905092915050565b600061236082612373565b9050919050565b60008115159050919050565b600073ffffffffffffffffffffffffffffffffffffffff82169050919050565b6000819050919050565b60006123a882612393565b9050919050565b82818337600083830152505050565b60005b838110156123dc5780820151818401526020810190506123c1565b838111156123eb576000848401525b50505050565b6000601f19601f8301169050919050565b61240b81612355565b811461241657600080fd5b50565b61242281612393565b811461242d57600080fd5b5056fea365627a7a72315820a6f5a3a2ddc77cc405add3e712afbfc3d9add492141aeb68a5090f8b463c05af6c6578706572696d656e74616cf564736f6c63430005100040",
  "source": "// SPDX-License-Identifier: MIT\npragma solidity >=0.4.21 <0.7.0;\n\n// to enable return of two-levels of dynamic arrays\npragma experimental ABIEncoderV2;\n\ncontract PinkyPromise {\n    struct PinkyPromiseRecord {\n        uint256 id;\n        string title;\n        string description;\n        uint256 createdAt;\n        // the user who created the promise\n        uint256 sharingUserId;\n        // indicates whether the sharing user has marked the promise as complete\n        bool completedBySharingUser;\n        // indicates whether the sharing user marked the promise as complete\n        uint256 completedBySharingUserAt;\n        // the user with who the promise must be shared\n        uint256 receivingUserId;\n        // indicates whether the receiving user has marked the promise as complete\n        bool completedByReceivingUser;\n        // indicates whether the receving user marked the promise as complete\n        uint256 completedByReceivingUserAt;\n        // indicates time beyond with the promise cannot be marked as complete\n        uint256 expiresIn;\n    }\n\n    struct PinkyUserRecord {\n        uint256 id;\n        address addr;\n        string name;\n        // total promises this user has made\n        uint256 totalPromises;\n    }\n\n    string public name;\n\n    uint256 public usersCount = 0;\n    mapping(uint256 => PinkyUserRecord) public users;\n    mapping(address => uint256) public userIdByAddr;\n\n    uint256 public promisesCount = 0;\n    mapping(uint256 => PinkyPromiseRecord) public promises;\n\n    constructor() public {\n        name = \"PinkyPromise\";\n    }\n\n    /**************************************************************************\n     *\n     * Events\n     *\n     **************************************************************************/\n    event PinkyUserRecordAdded(\n        uint256 indexed id,\n        address indexed addr,\n        string name,\n        uint256 totalPromises\n    );\n\n    event PinkyPromiseRecordAdded(\n        uint256 indexed id,\n        string title,\n        string description,\n        uint256 createdAt,\n        uint256 indexed sharingUserId,\n        bool completedBySharingUser,\n        uint256 completedBySharingUserAt,\n        uint256 indexed receivingUserId,\n        bool completedByReceivingUser,\n        uint256 completedByReceivingUserAt,\n        uint256 expiresIn\n    );\n\n    event PinkyPromiseCompletedBySharingUser(\n        uint256 promiseId,\n        uint256 completedBySharingUserAt\n    );\n\n    event PinkyPromiseCompletedByReceivingUser(\n        uint256 promiseId,\n        uint256 completedByReceivingUserAt\n    );\n\n    /**************************************************************************\n     *\n     * User management methods\n     *\n     **************************************************************************/\n\n    function getCurrentUser() public view returns (PinkyUserRecord memory) {\n        require(msg.sender != address(0));\n\n        return users[userIdByAddr[msg.sender]];\n    }\n\n    function addUser(string memory _name) public {\n        require(msg.sender != address(0));\n        require(userIdByAddr[msg.sender] == 0);\n\n        usersCount++;\n        users[usersCount] = PinkyUserRecord(usersCount, msg.sender, _name, 0);\n        userIdByAddr[msg.sender] = usersCount;\n\n        emit PinkyUserRecordAdded(usersCount, msg.sender, _name, 0);\n    }\n\n    function getViewableUsers() public view returns (PinkyUserRecord[] memory) {\n        require(msg.sender != address(0));\n\n        uint256 _userId = userIdByAddr[msg.sender];\n        uint256 _viewableUsersCount = 0;\n        for (uint256 i = 1; i <= usersCount; i++) {\n            // returns all users (except current user)\n            if (users[i].id != _userId) {\n                _viewableUsersCount++;\n            }\n        }\n\n        PinkyUserRecord[] memory _allViewableUsers = new PinkyUserRecord[](\n            _viewableUsersCount\n        );\n        uint256 count = 0;\n        for (uint256 i = 1; i <= usersCount; i++) {\n            if (users[i].id != _userId) {\n                _allViewableUsers[count++] = users[i];\n            }\n        }\n        return _allViewableUsers;\n    }\n\n    /**************************************************************************\n     *\n     * Promise management methods\n     *\n     **************************************************************************/\n\n    function addPromise(\n        string memory _title,\n        string memory _description,\n        uint256 _receivingUserId,\n        uint256 _expiresIn\n    ) public {\n        uint256 _sharingUserId = userIdByAddr[msg.sender];\n        require(msg.sender != address(0));\n        require(_receivingUserId != 0 && _receivingUserId <= usersCount);\n        require(_sharingUserId != 0 && _sharingUserId <= usersCount);\n\n        promisesCount++;\n        users[_sharingUserId].totalPromises++;\n        promises[promisesCount] = PinkyPromiseRecord(\n            promisesCount,\n            _title,\n            _description,\n            now,\n            _sharingUserId,\n            false,\n            0,\n            _receivingUserId,\n            false,\n            0,\n            _expiresIn\n        );\n\n        emit PinkyPromiseRecordAdded(\n            promisesCount,\n            _title,\n            _description,\n            now,\n            _sharingUserId,\n            false,\n            0,\n            _receivingUserId,\n            false,\n            0,\n            _expiresIn\n        );\n    }\n\n    function completePromiseAsSharingUser(uint256 _promiseId) public {\n        uint256 _userId = userIdByAddr[msg.sender];\n        require(_promiseId != 0 && _promiseId <= promisesCount);\n        require(_userId != 0 && _userId <= usersCount);\n        require(promises[_promiseId].sharingUserId == _userId);\n        require(\n            promises[_promiseId].expiresIn == 0 ||\n                promises[_promiseId].expiresIn >= now\n        );\n        require(!promises[_promiseId].completedBySharingUser);\n\n        promises[_promiseId].completedBySharingUser = true;\n        promises[_promiseId].completedBySharingUserAt = now;\n\n        emit PinkyPromiseCompletedBySharingUser(\n            _promiseId,\n            promises[_promiseId].completedBySharingUserAt\n        );\n    }\n\n    function completePromiseAsReceivingUser(uint256 _promiseId) public {\n        uint256 _userId = userIdByAddr[msg.sender];\n        require(_promiseId != 0 && _promiseId <= promisesCount);\n        require(_userId != 0 && _userId <= usersCount);\n        require(promises[_promiseId].receivingUserId == _userId);\n        require(\n            promises[_promiseId].expiresIn == 0 ||\n                promises[_promiseId].expiresIn >= now\n        );\n        require(!promises[_promiseId].completedByReceivingUser);\n\n        promises[_promiseId].completedByReceivingUser = true;\n        promises[_promiseId].completedByReceivingUserAt = now;\n\n        emit PinkyPromiseCompletedByReceivingUser(\n            _promiseId,\n            promises[_promiseId].completedByReceivingUserAt\n        );\n    }\n\n    function getPromisesByUserId()\n        public\n        view\n        returns (PinkyPromiseRecord[] memory)\n    {\n        uint256 _userId = userIdByAddr[msg.sender];\n        require(_userId != 0 && _userId <= usersCount);\n\n        uint256 count = 0;\n        PinkyPromiseRecord[] memory _userPromises = new PinkyPromiseRecord[](\n            users[_userId].totalPromises\n        );\n        for (uint256 i = 1; i <= promisesCount; i++) {\n            if (promises[i].sharingUserId == _userId) {\n                _userPromises[count++] = promises[i];\n            }\n        }\n        return _userPromises;\n    }\n\n    function getAllPromisesViewableByUser()\n        public\n        view\n        returns (PinkyPromiseRecord[] memory)\n    {\n        uint256 _userId = userIdByAddr[msg.sender];\n        require(msg.sender != address(0));\n\n        uint256 _viewablePromisesCount = 0;\n        for (uint256 i = 1; i <= promisesCount; i++) {\n            if (\n                promises[i].sharingUserId == _userId ||\n                promises[i].receivingUserId == _userId\n            ) {\n                _viewablePromisesCount++;\n            }\n        }\n\n        PinkyPromiseRecord[]\n            memory _allViewablePromises = new PinkyPromiseRecord[](\n                _viewablePromisesCount\n            );\n        uint256 count = 0;\n        for (uint256 i = 1; i <= promisesCount; i++) {\n            if (\n                promises[i].sharingUserId == _userId ||\n                promises[i].receivingUserId == _userId\n            ) {\n                _allViewablePromises[count++] = promises[i];\n            }\n        }\n        return _allViewablePromises;\n    }\n}\n",
  "sourcePath": "/Users/shanmni/Desktop/blockchain-assignment-pinky-promise/contracts/PinkyPromise.sol",
  "compiler": {
    "name": "solc",
    "version": "0.5.16+commit.9c3226ce.Emscripten.clang"
  },
  "schemaVersion": "3.4.3",
  "updatedAt": "2021-10-30T07:17:21.139Z",
  "networkType": "ethereum",
  "devdoc": {
    "methods": {}
  },
  "userdoc": {
    "methods": {
      "addPromise(string,string,uint256,uint256)": {
        "notice": "************************************************************************     * Promise management methods     *************************************************************************"
      },
      "getCurrentUser()": {
        "notice": "************************************************************************     * User management methods     *************************************************************************"
      }
    }
  }
}