{
  "contractName": "PinkyPromise",
  "abi": [
    {
      "inputs": [],
      "payable": false,
      "stateMutability": "nonpayable",
      "type": "constructor"
    },
    {
      "anonymous": false,
      "inputs": [
        {
          "indexed": false,
          "internalType": "uint256",
          "name": "promiseId",
          "type": "uint256"
        },
        {
          "indexed": false,
          "internalType": "uint256",
          "name": "completedByReceivingUserAt",
          "type": "uint256"
        },
        {
          "indexed": false,
          "internalType": "string",
          "name": "imgHash",
          "type": "string"
        }
      ],
      "name": "PinkyPromiseCompletedByReceivingUser",
      "type": "event"
    },
    {
      "anonymous": false,
      "inputs": [
        {
          "indexed": false,
          "internalType": "uint256",
          "name": "promiseId",
          "type": "uint256"
        },
        {
          "indexed": false,
          "internalType": "uint256",
          "name": "completedBySharingUserAt",
          "type": "uint256"
        },
        {
          "indexed": false,
          "internalType": "string",
          "name": "imgHash",
          "type": "string"
        }
      ],
      "name": "PinkyPromiseCompletedBySharingUser",
      "type": "event"
    },
    {
      "anonymous": false,
      "inputs": [
        {
          "indexed": true,
          "internalType": "uint256",
          "name": "id",
          "type": "uint256"
        },
        {
          "indexed": false,
          "internalType": "string",
          "name": "title",
          "type": "string"
        },
        {
          "indexed": false,
          "internalType": "string",
          "name": "description",
          "type": "string"
        },
        {
          "indexed": false,
          "internalType": "uint256",
          "name": "createdAt",
          "type": "uint256"
        },
        {
          "indexed": true,
          "internalType": "uint256",
          "name": "sharingUserId",
          "type": "uint256"
        },
        {
          "indexed": false,
          "internalType": "uint256",
          "name": "completedBySharingUserAt",
          "type": "uint256"
        },
        {
          "indexed": true,
          "internalType": "uint256",
          "name": "receivingUserId",
          "type": "uint256"
        },
        {
          "indexed": false,
          "internalType": "uint256",
          "name": "completedByReceivingUserAt",
          "type": "uint256"
        },
        {
          "indexed": false,
          "internalType": "uint256",
          "name": "expiresIn",
          "type": "uint256"
        }
      ],
      "name": "PinkyPromiseRecordAdded",
      "type": "event"
    },
    {
      "anonymous": false,
      "inputs": [
        {
          "indexed": true,
          "internalType": "uint256",
          "name": "id",
          "type": "uint256"
        },
        {
          "indexed": true,
          "internalType": "address",
          "name": "addr",
          "type": "address"
        },
        {
          "indexed": false,
          "internalType": "string",
          "name": "name",
          "type": "string"
        },
        {
          "indexed": false,
          "internalType": "uint256",
          "name": "totalPromises",
          "type": "uint256"
        }
      ],
      "name": "PinkyUserRecordAdded",
      "type": "event"
    },
    {
      "constant": true,
      "inputs": [],
      "name": "name",
      "outputs": [
        {
          "internalType": "string",
          "name": "",
          "type": "string"
        }
      ],
      "payable": false,
      "stateMutability": "view",
      "type": "function"
    },
    {
      "constant": true,
      "inputs": [
        {
          "internalType": "uint256",
          "name": "",
          "type": "uint256"
        }
      ],
      "name": "promises",
      "outputs": [
        {
          "internalType": "uint256",
          "name": "id",
          "type": "uint256"
        },
        {
          "internalType": "string",
          "name": "title",
          "type": "string"
        },
        {
          "internalType": "string",
          "name": "description",
          "type": "string"
        },
        {
          "internalType": "uint256",
          "name": "createdAt",
          "type": "uint256"
        },
        {
          "internalType": "uint256",
          "name": "sharingUserId",
          "type": "uint256"
        },
        {
          "internalType": "uint256",
          "name": "completedBySharingUserAt",
          "type": "uint256"
        },
        {
          "internalType": "uint256",
          "name": "receivingUserId",
          "type": "uint256"
        },
        {
          "internalType": "uint256",
          "name": "completedByReceivingUserAt",
          "type": "uint256"
        },
        {
          "internalType": "uint256",
          "name": "expiresIn",
          "type": "uint256"
        },
        {
          "internalType": "string",
          "name": "sharingUserImgHash",
          "type": "string"
        },
        {
          "internalType": "string",
          "name": "receivingUserImgHash",
          "type": "string"
        }
      ],
      "payable": false,
      "stateMutability": "view",
      "type": "function"
    },
    {
      "constant": true,
      "inputs": [],
      "name": "promisesCount",
      "outputs": [
        {
          "internalType": "uint256",
          "name": "",
          "type": "uint256"
        }
      ],
      "payable": false,
      "stateMutability": "view",
      "type": "function"
    },
    {
      "constant": true,
      "inputs": [
        {
          "internalType": "address",
          "name": "",
          "type": "address"
        }
      ],
      "name": "userIdByAddr",
      "outputs": [
        {
          "internalType": "uint256",
          "name": "",
          "type": "uint256"
        }
      ],
      "payable": false,
      "stateMutability": "view",
      "type": "function"
    },
    {
      "constant": true,
      "inputs": [
        {
          "internalType": "uint256",
          "name": "",
          "type": "uint256"
        }
      ],
      "name": "users",
      "outputs": [
        {
          "internalType": "uint256",
          "name": "id",
          "type": "uint256"
        },
        {
          "internalType": "address",
          "name": "addr",
          "type": "address"
        },
        {
          "internalType": "string",
          "name": "name",
          "type": "string"
        },
        {
          "internalType": "uint256",
          "name": "totalPromises",
          "type": "uint256"
        }
      ],
      "payable": false,
      "stateMutability": "view",
      "type": "function"
    },
    {
      "constant": true,
      "inputs": [],
      "name": "usersCount",
      "outputs": [
        {
          "internalType": "uint256",
          "name": "",
          "type": "uint256"
        }
      ],
      "payable": false,
      "stateMutability": "view",
      "type": "function"
    },
    {
      "constant": true,
      "inputs": [],
      "name": "getCurrentUser",
      "outputs": [
        {
          "components": [
            {
              "internalType": "uint256",
              "name": "id",
              "type": "uint256"
            },
            {
              "internalType": "address",
              "name": "addr",
              "type": "address"
            },
            {
              "internalType": "string",
              "name": "name",
              "type": "string"
            },
            {
              "internalType": "uint256",
              "name": "totalPromises",
              "type": "uint256"
            }
          ],
          "internalType": "struct PinkyPromise.PinkyUserRecord",
          "name": "",
          "type": "tuple"
        }
      ],
      "payable": false,
      "stateMutability": "view",
      "type": "function"
    },
    {
      "constant": false,
      "inputs": [
        {
          "internalType": "string",
          "name": "_name",
          "type": "string"
        }
      ],
      "name": "addUser",
      "outputs": [],
      "payable": false,
      "stateMutability": "nonpayable",
      "type": "function"
    },
    {
      "constant": true,
      "inputs": [],
      "name": "getViewableUsers",
      "outputs": [
        {
          "components": [
            {
              "internalType": "uint256",
              "name": "id",
              "type": "uint256"
            },
            {
              "internalType": "address",
              "name": "addr",
              "type": "address"
            },
            {
              "internalType": "string",
              "name": "name",
              "type": "string"
            },
            {
              "internalType": "uint256",
              "name": "totalPromises",
              "type": "uint256"
            }
          ],
          "internalType": "struct PinkyPromise.PinkyUserRecord[]",
          "name": "",
          "type": "tuple[]"
        }
      ],
      "payable": false,
      "stateMutability": "view",
      "type": "function"
    },
    {
      "constant": false,
      "inputs": [
        {
          "internalType": "string",
          "name": "_title",
          "type": "string"
        },
        {
          "internalType": "string",
          "name": "_description",
          "type": "string"
        },
        {
          "internalType": "uint256",
          "name": "_receivingUserId",
          "type": "uint256"
        },
        {
          "internalType": "uint256",
          "name": "_expiresIn",
          "type": "uint256"
        }
      ],
      "name": "addPromise",
      "outputs": [],
      "payable": false,
      "stateMutability": "nonpayable",
      "type": "function"
    },
    {
      "constant": false,
      "inputs": [
        {
          "internalType": "uint256",
          "name": "_promiseId",
          "type": "uint256"
        },
        {
          "internalType": "string",
          "name": "_imgHash",
          "type": "string"
        }
      ],
      "name": "completePromiseAsSharingUser",
      "outputs": [],
      "payable": false,
      "stateMutability": "nonpayable",
      "type": "function"
    },
    {
      "constant": false,
      "inputs": [
        {
          "internalType": "uint256",
          "name": "_promiseId",
          "type": "uint256"
        },
        {
          "internalType": "string",
          "name": "_imgHash",
          "type": "string"
        }
      ],
      "name": "completePromiseAsReceivingUser",
      "outputs": [],
      "payable": false,
      "stateMutability": "nonpayable",
      "type": "function"
    },
    {
      "constant": true,
      "inputs": [],
      "name": "getPromisesByUserId",
      "outputs": [
        {
          "components": [
            {
              "internalType": "uint256",
              "name": "id",
              "type": "uint256"
            },
            {
              "internalType": "string",
              "name": "title",
              "type": "string"
            },
            {
              "internalType": "string",
              "name": "description",
              "type": "string"
            },
            {
              "internalType": "uint256",
              "name": "createdAt",
              "type": "uint256"
            },
            {
              "internalType": "uint256",
              "name": "sharingUserId",
              "type": "uint256"
            },
            {
              "internalType": "uint256",
              "name": "completedBySharingUserAt",
              "type": "uint256"
            },
            {
              "internalType": "uint256",
              "name": "receivingUserId",
              "type": "uint256"
            },
            {
              "internalType": "uint256",
              "name": "completedByReceivingUserAt",
              "type": "uint256"
            },
            {
              "internalType": "uint256",
              "name": "expiresIn",
              "type": "uint256"
            },
            {
              "internalType": "string",
              "name": "sharingUserImgHash",
              "type": "string"
            },
            {
              "internalType": "string",
              "name": "receivingUserImgHash",
              "type": "string"
            }
          ],
          "internalType": "struct PinkyPromise.PinkyPromiseRecord[]",
          "name": "",
          "type": "tuple[]"
        }
      ],
      "payable": false,
      "stateMutability": "view",
      "type": "function"
    },
    {
      "constant": true,
      "inputs": [],
      "name": "getAllPromisesViewableByUser",
      "outputs": [
        {
          "components": [
            {
              "internalType": "uint256",
              "name": "id",
              "type": "uint256"
            },
            {
              "internalType": "string",
              "name": "title",
              "type": "string"
            },
            {
              "internalType": "string",
              "name": "description",
              "type": "string"
            },
            {
              "internalType": "uint256",
              "name": "createdAt",
              "type": "uint256"
            },
            {
              "internalType": "uint256",
              "name": "sharingUserId",
              "type": "uint256"
            },
            {
              "internalType": "uint256",
              "name": "completedBySharingUserAt",
              "type": "uint256"
            },
            {
              "internalType": "uint256",
              "name": "receivingUserId",
              "type": "uint256"
            },
            {
              "internalType": "uint256",
              "name": "completedByReceivingUserAt",
              "type": "uint256"
            },
            {
              "internalType": "uint256",
              "name": "expiresIn",
              "type": "uint256"
            },
            {
              "internalType": "string",
              "name": "sharingUserImgHash",
              "type": "string"
            },
            {
              "internalType": "string",
              "name": "receivingUserImgHash",
              "type": "string"
            }
          ],
          "internalType": "struct PinkyPromise.PinkyPromiseRecord[]",
          "name": "",
          "type": "tuple[]"
        }
      ],
      "payable": false,
      "stateMutability": "view",
      "type": "function"
    }
  ],
  "bytecode": "0x6080604052600060015560006004553480156200001b57600080fd5b506040518060400160405280600c81526020017f50696e6b7950726f6d6973650000000000000000000000000000000000000000815250600090805190602001906200006992919062000070565b506200011f565b828054600181600116156101000203166002900490600052602060002090601f016020900481019282601f10620000b357805160ff1916838001178555620000e4565b82800160010185558215620000e4579182015b82811115620000e3578251825591602001919060010190620000c6565b5b509050620000f39190620000f7565b5090565b6200011c91905b8082111562000118576000816000905550600101620000fe565b5090565b90565b612870806200012f6000396000f3fe608060405234801561001057600080fd5b50600436106100ea5760003560e01c806343ae37c31161008c57806392a9a1fc1161006657806392a9a1fc14610258578063b0083c7614610276578063c4ea9e4914610294578063e4498b62146102b0576100ea565b806343ae37c3146101fe57806362b8bb851461021c5780636ba13a821461023a576100ea565b80631f06c859116100c85780631f06c85914610145578063365b98b21461017f5780633c856721146101b25780633cf8a4a9146101e2576100ea565b806306fdde03146100ef57806317d0c32e1461010d57806318b8275a14610129575b600080fd5b6100f76102ce565b604051610104919061240c565b60405180910390f35b61012760048036036101229190810190611ee6565b61036c565b005b610143600480360361013e9190810190611ea5565b6105eb565b005b61015f600480360361015a9190810190611f79565b6107ea565b6040516101769b9a99989796959493929190612556565b60405180910390f35b61019960048036036101949190810190611f79565b610aa4565b6040516101a9949392919061250a565b60405180910390f35b6101cc60048036036101c79190810190611e7c565b610b8c565b6040516101d991906124ef565b60405180910390f35b6101fc60048036036101f79190810190611fa2565b610ba4565b005b610206610d53565b60405161021391906124cd565b60405180910390f35b610224610f03565b60405161023191906123c8565b60405180910390f35b6102426113a2565b60405161024f91906124ef565b60405180910390f35b6102606113a8565b60405161026d91906123ea565b60405180910390f35b61027e611642565b60405161028b91906124ef565b60405180910390f35b6102ae60048036036102a99190810190611fa2565b611648565b005b6102b86117f7565b6040516102c591906123c8565b60405180910390f35b60008054600181600116156101000203166002900480601f0160208091040260200160405190810160405280929190818152602001828054600181600116156101000203166002900480156103645780601f1061033957610100808354040283529160200191610364565b820191906000526020600020905b81548152906001019060200180831161034757829003601f168201915b505050505081565b6000600360003373ffffffffffffffffffffffffffffffffffffffff1673ffffffffffffffffffffffffffffffffffffffff168152602001908152602001600020549050600073ffffffffffffffffffffffffffffffffffffffff163373ffffffffffffffffffffffffffffffffffffffff1614156103ea57600080fd5b600083141580156103fd57506001548311155b61040657600080fd5b6000811415801561041957506001548111155b61042257600080fd5b60046000815480929190600101919050555060026000828152602001908152602001600020600301600081548092919060010191905055506040518061016001604052806004548152602001868152602001858152602001428152602001828152602001600081526020018481526020016000815260200183815260200160405180602001604052806000815250815260200160405180602001604052806000815250815250600560006004548152602001908152602001600020600082015181600001556020820151816001019080519060200190610503929190611c03565b506040820151816002019080519060200190610520929190611c03565b50606082015181600301556080820151816004015560a0820151816005015560c0820151816006015560e08201518160070155610100820151816008015561012082015181600901908051906020019061057b929190611c03565b5061014082015181600a019080519060200190610599929190611c03565b5090505082816004547f1e6388401da7c9eb911a19e07902fb7475d5d41f2db452b60e7b448534f9e1238888426000808a6040516105dc9695949392919061245e565b60405180910390a45050505050565b600073ffffffffffffffffffffffffffffffffffffffff163373ffffffffffffffffffffffffffffffffffffffff16141561062557600080fd5b6000600360003373ffffffffffffffffffffffffffffffffffffffff1673ffffffffffffffffffffffffffffffffffffffff168152602001908152602001600020541461067157600080fd5b600160008154809291906001019190505550604051806080016040528060015481526020013373ffffffffffffffffffffffffffffffffffffffff16815260200182815260200160008152506002600060015481526020019081526020016000206000820151816000015560208201518160010160006101000a81548173ffffffffffffffffffffffffffffffffffffffff021916908373ffffffffffffffffffffffffffffffffffffffff160217905550604082015181600201908051906020019061073f929190611c03565b5060608201518160030155905050600154600360003373ffffffffffffffffffffffffffffffffffffffff1673ffffffffffffffffffffffffffffffffffffffff168152602001908152602001600020819055503373ffffffffffffffffffffffffffffffffffffffff166001547f2caf956475a78404b8a9968f87d744ca11867bebdc13450394c0ddbeefa091468360006040516107df92919061242e565b60405180910390a350565b6005602052806000526040600020600091509050806000015490806001018054600181600116156101000203166002900480601f01602080910402602001604051908101604052809291908181526020018280546001816001161561010002031660029004801561089c5780601f106108715761010080835404028352916020019161089c565b820191906000526020600020905b81548152906001019060200180831161087f57829003601f168201915b505050505090806002018054600181600116156101000203166002900480601f01602080910402602001604051908101604052809291908181526020018280546001816001161561010002031660029004801561093a5780601f1061090f5761010080835404028352916020019161093a565b820191906000526020600020905b81548152906001019060200180831161091d57829003601f168201915b505050505090806003015490806004015490806005015490806006015490806007015490806008015490806009018054600181600116156101000203166002900480601f0160208091040260200160405190810160405280929190818152602001828054600181600116156101000203166002900480156109fc5780601f106109d1576101008083540402835291602001916109fc565b820191906000526020600020905b8154815290600101906020018083116109df57829003601f168201915b50505050509080600a018054600181600116156101000203166002900480601f016020809104026020016040519081016040528092919081815260200182805460018160011615610100020316600290048015610a9a5780601f10610a6f57610100808354040283529160200191610a9a565b820191906000526020600020905b815481529060010190602001808311610a7d57829003601f168201915b505050505090508b565b60026020528060005260406000206000915090508060000154908060010160009054906101000a900473ffffffffffffffffffffffffffffffffffffffff1690806002018054600181600116156101000203166002900480601f016020809104026020016040519081016040528092919081815260200182805460018160011615610100020316600290048015610b7c5780601f10610b5157610100808354040283529160200191610b7c565b820191906000526020600020905b815481529060010190602001808311610b5f57829003601f168201915b5050505050908060030154905084565b60036020528060005260406000206000915090505481565b6000600360003373ffffffffffffffffffffffffffffffffffffffff1673ffffffffffffffffffffffffffffffffffffffff16815260200190815260200160002054905060008314158015610bfb57506004548311155b610c0457600080fd5b60008114158015610c1757506001548111155b610c2057600080fd5b80600560008581526020019081526020016000206006015414610c4257600080fd5b600060056000858152602001908152602001600020600801541480610c7d575042600560008581526020019081526020016000206008015410155b610c8657600080fd5b6000600560008581526020019081526020016000206007015414610ca957600080fd5b6000825111610cb757600080fd5b4260056000858152602001908152602001600020600701819055508160056000858152602001908152602001600020600a019080519060200190610cfc929190611c83565b507f7b11c6198666ca30e9638b566a7f193e083ef8cd02f0ee9d3ceab11202b92f0c83600560008681526020019081526020016000206007015484604051610d469392919061261d565b60405180910390a1505050565b610d5b611d03565b600073ffffffffffffffffffffffffffffffffffffffff163373ffffffffffffffffffffffffffffffffffffffff161415610d9557600080fd5b60026000600360003373ffffffffffffffffffffffffffffffffffffffff1673ffffffffffffffffffffffffffffffffffffffff168152602001908152602001600020548152602001908152602001600020604051806080016040529081600082015481526020016001820160009054906101000a900473ffffffffffffffffffffffffffffffffffffffff1673ffffffffffffffffffffffffffffffffffffffff1673ffffffffffffffffffffffffffffffffffffffff168152602001600282018054600181600116156101000203166002900480601f016020809104026020016040519081016040528092919081815260200182805460018160011615610100020316600290048015610eeb5780601f10610ec057610100808354040283529160200191610eeb565b820191906000526020600020905b815481529060010190602001808311610ece57829003601f168201915b50505050508152602001600382015481525050905090565b60606000600360003373ffffffffffffffffffffffffffffffffffffffff1673ffffffffffffffffffffffffffffffffffffffff168152602001908152602001600020549050600073ffffffffffffffffffffffffffffffffffffffff163373ffffffffffffffffffffffffffffffffffffffff161415610f8357600080fd5b60008090506000600190505b6004548111610fec578260056000838152602001908152602001600020600401541480610fd15750826005600083815260200190815260200160002060060154145b15610fdf5781806001019250505b8080600101915050610f8f565b5060608160405190808252806020026020018201604052801561102957816020015b611016611d41565b81526020019060019003908161100e5790505b50905060008090506000600190505b600454811161139757846005600083815260200190815260200160002060040154148061107a5750846005600083815260200190815260200160002060060154145b1561138a57600560008281526020019081526020016000206040518061016001604052908160008201548152602001600182018054600181600116156101000203166002900480601f0160208091040260200160405190810160405280929190818152602001828054600181600116156101000203166002900480156111415780601f1061111657610100808354040283529160200191611141565b820191906000526020600020905b81548152906001019060200180831161112457829003601f168201915b50505050508152602001600282018054600181600116156101000203166002900480601f0160208091040260200160405190810160405280929190818152602001828054600181600116156101000203166002900480156111e35780601f106111b8576101008083540402835291602001916111e3565b820191906000526020600020905b8154815290600101906020018083116111c657829003601f168201915b50505050508152602001600382015481526020016004820154815260200160058201548152602001600682015481526020016007820154815260200160088201548152602001600982018054600181600116156101000203166002900480601f0160208091040260200160405190810160405280929190818152602001828054600181600116156101000203166002900480156112c15780601f10611296576101008083540402835291602001916112c1565b820191906000526020600020905b8154815290600101906020018083116112a457829003601f168201915b50505050508152602001600a82018054600181600116156101000203166002900480601f0160208091040260200160405190810160405280929190818152602001828054600181600116156101000203166002900480156113635780601f1061133857610100808354040283529160200191611363565b820191906000526020600020905b81548152906001019060200180831161134657829003601f168201915b50505050508152505083838060010194508151811061137e57fe5b60200260200101819052505b8080600101915050611038565b508194505050505090565b60015481565b6060600073ffffffffffffffffffffffffffffffffffffffff163373ffffffffffffffffffffffffffffffffffffffff1614156113e457600080fd5b6000600360003373ffffffffffffffffffffffffffffffffffffffff1673ffffffffffffffffffffffffffffffffffffffff16815260200190815260200160002054905060008090506000600190505b600154811161147057826002600083815260200190815260200160002060000154146114635781806001019250505b8080600101915050611434565b506060816040519080825280602002602001820160405280156114ad57816020015b61149a611d9b565b8152602001906001900390816114925790505b50905060008090506000600190505b6001548111611637578460026000838152602001908152602001600020600001541461162a5760026000828152602001908152602001600020604051806080016040529081600082015481526020016001820160009054906101000a900473ffffffffffffffffffffffffffffffffffffffff1673ffffffffffffffffffffffffffffffffffffffff1673ffffffffffffffffffffffffffffffffffffffff168152602001600282018054600181600116156101000203166002900480601f0160208091040260200160405190810160405280929190818152602001828054600181600116156101000203166002900480156115f95780601f106115ce576101008083540402835291602001916115f9565b820191906000526020600020905b8154815290600101906020018083116115dc57829003601f168201915b5050505050815260200160038201548152505083838060010194508151811061161e57fe5b60200260200101819052505b80806001019150506114bc565b508194505050505090565b60045481565b6000600360003373ffffffffffffffffffffffffffffffffffffffff1673ffffffffffffffffffffffffffffffffffffffff1681526020019081526020016000205490506000831415801561169f57506004548311155b6116a857600080fd5b600081141580156116bb57506001548111155b6116c457600080fd5b806005600085815260200190815260200160002060040154146116e657600080fd5b600060056000858152602001908152602001600020600801541480611721575042600560008581526020019081526020016000206008015410155b61172a57600080fd5b600060056000858152602001908152602001600020600501541461174d57600080fd5b600082511161175b57600080fd5b426005600085815260200190815260200160002060050181905550816005600085815260200190815260200160002060090190805190602001906117a0929190611c83565b507f565c81638876643fda0bdd58fb43fa86132eaa79fd397b0e69c1a7c4616b978d836005600086815260200190815260200160002060050154846040516117ea9392919061261d565b60405180910390a1505050565b60606000600360003373ffffffffffffffffffffffffffffffffffffffff1673ffffffffffffffffffffffffffffffffffffffff1681526020019081526020016000205490506000811415801561185057506001548111155b61185957600080fd5b6000809050606060026000848152602001908152602001600020600301546040519080825280602002602001820160405280156118b057816020015b61189d611d41565b8152602001906001900390816118955790505b5090506000600190505b6004548111611bf9578360056000838152602001908152602001600020600401541415611bec57600560008281526020019081526020016000206040518061016001604052908160008201548152602001600182018054600181600116156101000203166002900480601f0160208091040260200160405190810160405280929190818152602001828054600181600116156101000203166002900480156119a35780601f10611978576101008083540402835291602001916119a3565b820191906000526020600020905b81548152906001019060200180831161198657829003601f168201915b50505050508152602001600282018054600181600116156101000203166002900480601f016020809104026020016040519081016040528092919081815260200182805460018160011615610100020316600290048015611a455780601f10611a1a57610100808354040283529160200191611a45565b820191906000526020600020905b815481529060010190602001808311611a2857829003601f168201915b50505050508152602001600382015481526020016004820154815260200160058201548152602001600682015481526020016007820154815260200160088201548152602001600982018054600181600116156101000203166002900480601f016020809104026020016040519081016040528092919081815260200182805460018160011615610100020316600290048015611b235780601f10611af857610100808354040283529160200191611b23565b820191906000526020600020905b815481529060010190602001808311611b0657829003601f168201915b50505050508152602001600a82018054600181600116156101000203166002900480601f016020809104026020016040519081016040528092919081815260200182805460018160011615610100020316600290048015611bc55780601f10611b9a57610100808354040283529160200191611bc5565b820191906000526020600020905b815481529060010190602001808311611ba857829003601f168201915b505050505081525050828480600101955081518110611be057fe5b60200260200101819052505b80806001019150506118ba565b5080935050505090565b828054600181600116156101000203166002900490600052602060002090601f016020900481019282601f10611c4457805160ff1916838001178555611c72565b82800160010185558215611c72579182015b82811115611c71578251825591602001919060010190611c56565b5b509050611c7f9190611dd9565b5090565b828054600181600116156101000203166002900490600052602060002090601f016020900481019282601f10611cc457805160ff1916838001178555611cf2565b82800160010185558215611cf2579182015b82811115611cf1578251825591602001919060010190611cd6565b5b509050611cff9190611dd9565b5090565b604051806080016040528060008152602001600073ffffffffffffffffffffffffffffffffffffffff16815260200160608152602001600081525090565b60405180610160016040528060008152602001606081526020016060815260200160008152602001600081526020016000815260200160008152602001600081526020016000815260200160608152602001606081525090565b604051806080016040528060008152602001600073ffffffffffffffffffffffffffffffffffffffff16815260200160608152602001600081525090565b611dfb91905b80821115611df7576000816000905550600101611ddf565b5090565b90565b600081359050611e0d816127ff565b92915050565b600082601f830112611e2457600080fd5b8135611e37611e3282612688565b61265b565b91508082526020830160208301858383011115611e5357600080fd5b611e5e8382846127ac565b50505092915050565b600081359050611e7681612816565b92915050565b600060208284031215611e8e57600080fd5b6000611e9c84828501611dfe565b91505092915050565b600060208284031215611eb757600080fd5b600082013567ffffffffffffffff811115611ed157600080fd5b611edd84828501611e13565b91505092915050565b60008060008060808587031215611efc57600080fd5b600085013567ffffffffffffffff811115611f1657600080fd5b611f2287828801611e13565b945050602085013567ffffffffffffffff811115611f3f57600080fd5b611f4b87828801611e13565b9350506040611f5c87828801611e67565b9250506060611f6d87828801611e67565b91505092959194509250565b600060208284031215611f8b57600080fd5b6000611f9984828501611e67565b91505092915050565b60008060408385031215611fb557600080fd5b6000611fc385828601611e67565b925050602083013567ffffffffffffffff811115611fe057600080fd5b611fec85828601611e13565b9150509250929050565b600061200283836121e0565b905092915050565b60006120168383612347565b905092915050565b6120278161275e565b82525050565b6120368161275e565b82525050565b6000612047826126d4565b612051818561271a565b935083602082028501612063856126b4565b8060005b8581101561209f57848403895281516120808582611ff6565b945061208b83612700565b925060208a01995050600181019050612067565b50829750879550505050505092915050565b60006120bc826126df565b6120c6818561272b565b9350836020820285016120d8856126c4565b8060005b8581101561211457848403895281516120f5858261200a565b94506121008361270d565b925060208a019950506001810190506120dc565b50829750879550505050505092915050565b61212f8161279a565b82525050565b6000612140826126f5565b61214a818561274d565b935061215a8185602086016127bb565b612163816127ee565b840191505092915050565b6000612179826126ea565b612183818561273c565b93506121938185602086016127bb565b61219c816127ee565b840191505092915050565b60006121b2826126ea565b6121bc818561274d565b93506121cc8185602086016127bb565b6121d5816127ee565b840191505092915050565b6000610160830160008301516121f960008601826123aa565b5060208301518482036020860152612211828261216e565b9150506040830151848203604086015261222b828261216e565b915050606083015161224060608601826123aa565b50608083015161225360808601826123aa565b5060a083015161226660a08601826123aa565b5060c083015161227960c08601826123aa565b5060e083015161228c60e08601826123aa565b506101008301516122a16101008601826123aa565b506101208301518482036101208601526122bb828261216e565b9150506101408301518482036101408601526122d7828261216e565b9150508091505092915050565b60006080830160008301516122fc60008601826123aa565b50602083015161230f602086018261201e565b5060408301518482036040860152612327828261216e565b915050606083015161233c60608601826123aa565b508091505092915050565b600060808301600083015161235f60008601826123aa565b506020830151612372602086018261201e565b506040830151848203604086015261238a828261216e565b915050606083015161239f60608601826123aa565b508091505092915050565b6123b381612790565b82525050565b6123c281612790565b82525050565b600060208201905081810360008301526123e2818461203c565b905092915050565b6000602082019050818103600083015261240481846120b1565b905092915050565b6000602082019050818103600083015261242681846121a7565b905092915050565b600060408201905081810360008301526124488185612135565b90506124576020830184612126565b9392505050565b600060c08201905081810360008301526124788189612135565b9050818103602083015261248c8188612135565b905061249b60408301876123b9565b6124a86060830186612126565b6124b56080830185612126565b6124c260a08301846123b9565b979650505050505050565b600060208201905081810360008301526124e781846122e4565b905092915050565b600060208201905061250460008301846123b9565b92915050565b600060808201905061251f60008301876123b9565b61252c602083018661202d565b818103604083015261253e81856121a7565b905061254d60608301846123b9565b95945050505050565b60006101608201905061256c600083018e6123b9565b818103602083015261257e818d6121a7565b90508181036040830152612592818c6121a7565b90506125a1606083018b6123b9565b6125ae608083018a6123b9565b6125bb60a08301896123b9565b6125c860c08301886123b9565b6125d560e08301876123b9565b6125e36101008301866123b9565b8181036101208301526125f681856121a7565b905081810361014083015261260b81846121a7565b90509c9b505050505050505050505050565b600060608201905061263260008301866123b9565b61263f60208301856123b9565b81810360408301526126518184612135565b9050949350505050565b6000604051905081810181811067ffffffffffffffff8211171561267e57600080fd5b8060405250919050565b600067ffffffffffffffff82111561269f57600080fd5b601f19601f8301169050602081019050919050565b6000819050602082019050919050565b6000819050602082019050919050565b600081519050919050565b600081519050919050565b600081519050919050565b600081519050919050565b6000602082019050919050565b6000602082019050919050565b600082825260208201905092915050565b600082825260208201905092915050565b600082825260208201905092915050565b600082825260208201905092915050565b600061276982612770565b9050919050565b600073ffffffffffffffffffffffffffffffffffffffff82169050919050565b6000819050919050565b60006127a582612790565b9050919050565b82818337600083830152505050565b60005b838110156127d95780820151818401526020810190506127be565b838111156127e8576000848401525b50505050565b6000601f19601f8301169050919050565b6128088161275e565b811461281357600080fd5b50565b61281f81612790565b811461282a57600080fd5b5056fea365627a7a723158209971cbab3c32f6634dba92f0e8aa405c6012a6b02faae55e748e2265ad1ba8c36c6578706572696d656e74616cf564736f6c63430005100040",
  "source": "// SPDX-License-Identifier: MIT\npragma solidity >=0.4.21 <0.7.0;\n\n// to enable return of two-levels of dynamic arrays\npragma experimental ABIEncoderV2;\n\ncontract PinkyPromise {\n    struct PinkyPromiseRecord {\n        uint256 id;\n        string title;\n        string description;\n        uint256 createdAt;\n        // the user who created the promise\n        uint256 sharingUserId;\n        // indicates whether the sharing user marked the promise as complete\n        uint256 completedBySharingUserAt;\n        // the user with who the promise must be shared\n        uint256 receivingUserId;\n        // indicates whether the receving user marked the promise as complete\n        uint256 completedByReceivingUserAt;\n        // indicates time beyond with the promise cannot be marked as complete\n        uint256 expiresIn;\n        // the hash for the image proof of sharing user completing the promise, stored in IPFS\n        string sharingUserImgHash;\n        // the hash for the image proof of receiving user completing the promise, stored in IPFS\n        string receivingUserImgHash;\n    }\n\n    struct PinkyUserRecord {\n        uint256 id;\n        address addr;\n        string name;\n        // total promises this user has made\n        uint256 totalPromises;\n    }\n\n    string public name;\n\n    uint256 public usersCount = 0;\n    mapping(uint256 => PinkyUserRecord) public users;\n    mapping(address => uint256) public userIdByAddr;\n\n    uint256 public promisesCount = 0;\n    mapping(uint256 => PinkyPromiseRecord) public promises;\n\n    constructor() public {\n        name = \"PinkyPromise\";\n    }\n\n    /**************************************************************************\n     *\n     * Events\n     *\n     **************************************************************************/\n    event PinkyUserRecordAdded(\n        uint256 indexed id,\n        address indexed addr,\n        string name,\n        uint256 totalPromises\n    );\n\n    event PinkyPromiseRecordAdded(\n        uint256 indexed id,\n        string title,\n        string description,\n        uint256 createdAt,\n        uint256 indexed sharingUserId,\n        uint256 completedBySharingUserAt,\n        uint256 indexed receivingUserId,\n        uint256 completedByReceivingUserAt,\n        uint256 expiresIn\n    );\n\n    event PinkyPromiseCompletedBySharingUser(\n        uint256 promiseId,\n        uint256 completedBySharingUserAt,\n        string imgHash\n    );\n\n    event PinkyPromiseCompletedByReceivingUser(\n        uint256 promiseId,\n        uint256 completedByReceivingUserAt,\n        string imgHash\n    );\n\n    /**************************************************************************\n     *\n     * User management methods\n     *\n     **************************************************************************/\n\n    function getCurrentUser() public view returns (PinkyUserRecord memory) {\n        require(msg.sender != address(0));\n\n        return users[userIdByAddr[msg.sender]];\n    }\n\n    function addUser(string memory _name) public {\n        require(msg.sender != address(0));\n        require(userIdByAddr[msg.sender] == 0);\n\n        usersCount++;\n        users[usersCount] = PinkyUserRecord(usersCount, msg.sender, _name, 0);\n        userIdByAddr[msg.sender] = usersCount;\n\n        emit PinkyUserRecordAdded(usersCount, msg.sender, _name, 0);\n    }\n\n    function getViewableUsers() public view returns (PinkyUserRecord[] memory) {\n        require(msg.sender != address(0));\n\n        uint256 _userId = userIdByAddr[msg.sender];\n        uint256 _viewableUsersCount = 0;\n        for (uint256 i = 1; i <= usersCount; i++) {\n            // returns all users (except current user)\n            if (users[i].id != _userId) {\n                _viewableUsersCount++;\n            }\n        }\n\n        PinkyUserRecord[] memory _allViewableUsers = new PinkyUserRecord[](\n            _viewableUsersCount\n        );\n        uint256 count = 0;\n        for (uint256 i = 1; i <= usersCount; i++) {\n            if (users[i].id != _userId) {\n                _allViewableUsers[count++] = users[i];\n            }\n        }\n        return _allViewableUsers;\n    }\n\n    /**************************************************************************\n     *\n     * Promise management methods\n     *\n     **************************************************************************/\n\n    function addPromise(\n        string memory _title,\n        string memory _description,\n        uint256 _receivingUserId,\n        uint256 _expiresIn\n    ) public {\n        uint256 _sharingUserId = userIdByAddr[msg.sender];\n        require(msg.sender != address(0));\n        require(_receivingUserId != 0 && _receivingUserId <= usersCount);\n        require(_sharingUserId != 0 && _sharingUserId <= usersCount);\n\n        promisesCount++;\n        users[_sharingUserId].totalPromises++;\n        promises[promisesCount] = PinkyPromiseRecord(\n            promisesCount,\n            _title,\n            _description,\n            now,\n            _sharingUserId,\n            0,\n            _receivingUserId,\n            0,\n            _expiresIn,\n            \"\",\n            \"\"\n        );\n\n        emit PinkyPromiseRecordAdded(\n            promisesCount,\n            _title,\n            _description,\n            now,\n            _sharingUserId,\n            0,\n            _receivingUserId,\n            0,\n            _expiresIn\n        );\n    }\n\n    function completePromiseAsSharingUser(\n        uint256 _promiseId,\n        string memory _imgHash\n    ) public {\n        uint256 _userId = userIdByAddr[msg.sender];\n        require(_promiseId != 0 && _promiseId <= promisesCount);\n        require(_userId != 0 && _userId <= usersCount);\n        require(promises[_promiseId].sharingUserId == _userId);\n        require(\n            promises[_promiseId].expiresIn == 0 ||\n                promises[_promiseId].expiresIn >= now\n        );\n        require(promises[_promiseId].completedBySharingUserAt == 0);\n        require(bytes(_imgHash).length > 0);\n\n        promises[_promiseId].completedBySharingUserAt = now;\n        promises[_promiseId].sharingUserImgHash = _imgHash;\n\n        emit PinkyPromiseCompletedBySharingUser(\n            _promiseId,\n            promises[_promiseId].completedBySharingUserAt,\n            _imgHash\n        );\n    }\n\n    function completePromiseAsReceivingUser(\n        uint256 _promiseId,\n        string memory _imgHash\n    ) public {\n        uint256 _userId = userIdByAddr[msg.sender];\n        require(_promiseId != 0 && _promiseId <= promisesCount);\n        require(_userId != 0 && _userId <= usersCount);\n        require(promises[_promiseId].receivingUserId == _userId);\n        require(\n            promises[_promiseId].expiresIn == 0 ||\n                promises[_promiseId].expiresIn >= now\n        );\n        require(promises[_promiseId].completedByReceivingUserAt == 0);\n        require(bytes(_imgHash).length > 0);\n\n        promises[_promiseId].completedByReceivingUserAt = now;\n        promises[_promiseId].receivingUserImgHash = _imgHash;\n\n        emit PinkyPromiseCompletedByReceivingUser(\n            _promiseId,\n            promises[_promiseId].completedByReceivingUserAt,\n            _imgHash\n        );\n    }\n\n    function getPromisesByUserId()\n        public\n        view\n        returns (PinkyPromiseRecord[] memory)\n    {\n        uint256 _userId = userIdByAddr[msg.sender];\n        require(_userId != 0 && _userId <= usersCount);\n\n        uint256 count = 0;\n        PinkyPromiseRecord[] memory _userPromises = new PinkyPromiseRecord[](\n            users[_userId].totalPromises\n        );\n        for (uint256 i = 1; i <= promisesCount; i++) {\n            if (promises[i].sharingUserId == _userId) {\n                _userPromises[count++] = promises[i];\n            }\n        }\n        return _userPromises;\n    }\n\n    function getAllPromisesViewableByUser()\n        public\n        view\n        returns (PinkyPromiseRecord[] memory)\n    {\n        uint256 _userId = userIdByAddr[msg.sender];\n        require(msg.sender != address(0));\n\n        uint256 _viewablePromisesCount = 0;\n        for (uint256 i = 1; i <= promisesCount; i++) {\n            if (\n                promises[i].sharingUserId == _userId ||\n                promises[i].receivingUserId == _userId\n            ) {\n                _viewablePromisesCount++;\n            }\n        }\n\n        PinkyPromiseRecord[]\n            memory _allViewablePromises = new PinkyPromiseRecord[](\n                _viewablePromisesCount\n            );\n        uint256 count = 0;\n        for (uint256 i = 1; i <= promisesCount; i++) {\n            if (\n                promises[i].sharingUserId == _userId ||\n                promises[i].receivingUserId == _userId\n            ) {\n                _allViewablePromises[count++] = promises[i];\n            }\n        }\n        return _allViewablePromises;\n    }\n}\n",
  "sourcePath": "/Users/shanmni/Desktop/blockchain-assignment-pinky-promise/contracts/PinkyPromise.sol",
  "compiler": {
    "name": "solc",
    "version": "0.5.16+commit.9c3226ce.Emscripten.clang"
  },
  "schemaVersion": "3.4.3",
  "updatedAt": "2021-10-30T11:11:00.010Z",
  "networkType": "ethereum",
  "devdoc": {
    "methods": {}
  },
  "userdoc": {
    "methods": {
      "addPromise(string,string,uint256,uint256)": {
        "notice": "************************************************************************     * Promise management methods     *************************************************************************"
      },
      "getCurrentUser()": {
        "notice": "************************************************************************     * User management methods     *************************************************************************"
      }
    }
  }
}