{
  "contractName": "PinkyPromise",
  "abi": [
    {
      "inputs": [],
      "payable": false,
      "stateMutability": "nonpayable",
      "type": "constructor"
    },
    {
      "constant": true,
      "inputs": [],
      "name": "name",
      "outputs": [
        {
          "internalType": "string",
          "name": "",
          "type": "string"
        }
      ],
      "payable": false,
      "stateMutability": "view",
      "type": "function"
    },
    {
      "constant": true,
      "inputs": [
        {
          "internalType": "uint256",
          "name": "",
          "type": "uint256"
        }
      ],
      "name": "promises",
      "outputs": [
        {
          "internalType": "uint256",
          "name": "id",
          "type": "uint256"
        },
        {
          "internalType": "string",
          "name": "title",
          "type": "string"
        },
        {
          "internalType": "string",
          "name": "description",
          "type": "string"
        },
        {
          "internalType": "uint256",
          "name": "createdAt",
          "type": "uint256"
        },
        {
          "internalType": "bool",
          "name": "completedBySharingUser",
          "type": "bool"
        },
        {
          "internalType": "bool",
          "name": "completedByReceivingUser",
          "type": "bool"
        },
        {
          "internalType": "uint256",
          "name": "sharingUserId",
          "type": "uint256"
        },
        {
          "internalType": "uint256",
          "name": "receivingUserId",
          "type": "uint256"
        }
      ],
      "payable": false,
      "stateMutability": "view",
      "type": "function"
    },
    {
      "constant": true,
      "inputs": [],
      "name": "promisesCount",
      "outputs": [
        {
          "internalType": "uint256",
          "name": "",
          "type": "uint256"
        }
      ],
      "payable": false,
      "stateMutability": "view",
      "type": "function"
    },
    {
      "constant": true,
      "inputs": [
        {
          "internalType": "address",
          "name": "",
          "type": "address"
        }
      ],
      "name": "userIdByAddr",
      "outputs": [
        {
          "internalType": "uint256",
          "name": "",
          "type": "uint256"
        }
      ],
      "payable": false,
      "stateMutability": "view",
      "type": "function"
    },
    {
      "constant": true,
      "inputs": [
        {
          "internalType": "uint256",
          "name": "",
          "type": "uint256"
        }
      ],
      "name": "users",
      "outputs": [
        {
          "internalType": "uint256",
          "name": "id",
          "type": "uint256"
        },
        {
          "internalType": "address",
          "name": "addr",
          "type": "address"
        },
        {
          "internalType": "string",
          "name": "name",
          "type": "string"
        },
        {
          "internalType": "uint256",
          "name": "totalPromises",
          "type": "uint256"
        }
      ],
      "payable": false,
      "stateMutability": "view",
      "type": "function"
    },
    {
      "constant": true,
      "inputs": [],
      "name": "usersCount",
      "outputs": [
        {
          "internalType": "uint256",
          "name": "",
          "type": "uint256"
        }
      ],
      "payable": false,
      "stateMutability": "view",
      "type": "function"
    },
    {
      "constant": true,
      "inputs": [],
      "name": "getCurrentUser",
      "outputs": [
        {
          "components": [
            {
              "internalType": "uint256",
              "name": "id",
              "type": "uint256"
            },
            {
              "internalType": "address",
              "name": "addr",
              "type": "address"
            },
            {
              "internalType": "string",
              "name": "name",
              "type": "string"
            },
            {
              "internalType": "uint256",
              "name": "totalPromises",
              "type": "uint256"
            }
          ],
          "internalType": "struct PinkyPromise.PinkyUserRecord",
          "name": "",
          "type": "tuple"
        }
      ],
      "payable": false,
      "stateMutability": "view",
      "type": "function"
    },
    {
      "constant": false,
      "inputs": [
        {
          "internalType": "string",
          "name": "_name",
          "type": "string"
        }
      ],
      "name": "addUser",
      "outputs": [],
      "payable": false,
      "stateMutability": "nonpayable",
      "type": "function"
    },
    {
      "constant": true,
      "inputs": [],
      "name": "getViewableUsers",
      "outputs": [
        {
          "components": [
            {
              "internalType": "uint256",
              "name": "id",
              "type": "uint256"
            },
            {
              "internalType": "address",
              "name": "addr",
              "type": "address"
            },
            {
              "internalType": "string",
              "name": "name",
              "type": "string"
            },
            {
              "internalType": "uint256",
              "name": "totalPromises",
              "type": "uint256"
            }
          ],
          "internalType": "struct PinkyPromise.PinkyUserRecord[]",
          "name": "",
          "type": "tuple[]"
        }
      ],
      "payable": false,
      "stateMutability": "view",
      "type": "function"
    },
    {
      "constant": false,
      "inputs": [
        {
          "internalType": "string",
          "name": "_title",
          "type": "string"
        },
        {
          "internalType": "string",
          "name": "_description",
          "type": "string"
        },
        {
          "internalType": "uint256",
          "name": "_receivingUserId",
          "type": "uint256"
        }
      ],
      "name": "addPromise",
      "outputs": [],
      "payable": false,
      "stateMutability": "nonpayable",
      "type": "function"
    },
    {
      "constant": true,
      "inputs": [],
      "name": "getPromisesByUserId",
      "outputs": [
        {
          "components": [
            {
              "internalType": "uint256",
              "name": "id",
              "type": "uint256"
            },
            {
              "internalType": "string",
              "name": "title",
              "type": "string"
            },
            {
              "internalType": "string",
              "name": "description",
              "type": "string"
            },
            {
              "internalType": "uint256",
              "name": "createdAt",
              "type": "uint256"
            },
            {
              "internalType": "bool",
              "name": "completedBySharingUser",
              "type": "bool"
            },
            {
              "internalType": "bool",
              "name": "completedByReceivingUser",
              "type": "bool"
            },
            {
              "internalType": "uint256",
              "name": "sharingUserId",
              "type": "uint256"
            },
            {
              "internalType": "uint256",
              "name": "receivingUserId",
              "type": "uint256"
            }
          ],
          "internalType": "struct PinkyPromise.PinkyPromiseRecord[]",
          "name": "",
          "type": "tuple[]"
        }
      ],
      "payable": false,
      "stateMutability": "view",
      "type": "function"
    },
    {
      "constant": false,
      "inputs": [
        {
          "internalType": "uint256",
          "name": "_promiseId",
          "type": "uint256"
        }
      ],
      "name": "completePromiseAsSharingUser",
      "outputs": [],
      "payable": false,
      "stateMutability": "nonpayable",
      "type": "function"
    },
    {
      "constant": false,
      "inputs": [
        {
          "internalType": "uint256",
          "name": "_promiseId",
          "type": "uint256"
        }
      ],
      "name": "completePromiseAsReceivingUser",
      "outputs": [],
      "payable": false,
      "stateMutability": "nonpayable",
      "type": "function"
    },
    {
      "constant": true,
      "inputs": [],
      "name": "getAllPromisesViewableByUser",
      "outputs": [
        {
          "components": [
            {
              "internalType": "uint256",
              "name": "id",
              "type": "uint256"
            },
            {
              "internalType": "string",
              "name": "title",
              "type": "string"
            },
            {
              "internalType": "string",
              "name": "description",
              "type": "string"
            },
            {
              "internalType": "uint256",
              "name": "createdAt",
              "type": "uint256"
            },
            {
              "internalType": "bool",
              "name": "completedBySharingUser",
              "type": "bool"
            },
            {
              "internalType": "bool",
              "name": "completedByReceivingUser",
              "type": "bool"
            },
            {
              "internalType": "uint256",
              "name": "sharingUserId",
              "type": "uint256"
            },
            {
              "internalType": "uint256",
              "name": "receivingUserId",
              "type": "uint256"
            }
          ],
          "internalType": "struct PinkyPromise.PinkyPromiseRecord[]",
          "name": "",
          "type": "tuple[]"
        }
      ],
      "payable": false,
      "stateMutability": "view",
      "type": "function"
    }
  ],
  "bytecode": "0x6080604052600060015560006004553480156200001b57600080fd5b506040518060400160405280600c81526020017f50696e6b7950726f6d6973650000000000000000000000000000000000000000815250600090805190602001906200006992919062000070565b506200011f565b828054600181600116156101000203166002900490600052602060002090601f016020900481019282601f10620000b357805160ff1916838001178555620000e4565b82800160010185558215620000e4579182015b82811115620000e3578251825591602001919060010190620000c6565b5b509050620000f39190620000f7565b5090565b6200011c91905b8082111562000118576000816000905550600101620000fe565b5090565b90565b611f81806200012f6000396000f3fe608060405234801561001057600080fd5b50600436106100ea5760003560e01c806362b8bb851161008c578063a852904111610066578063a852904114610257578063b0083c7614610273578063b367dd6514610291578063e4498b62146102ad576100ea565b806362b8bb85146101fd5780636ba13a821461021b57806392a9a1fc14610239576100ea565b8063365b98b2116100c8578063365b98b2146101605780633c85672114610193578063411dee92146101c357806343ae37c3146101df576100ea565b806306fdde03146100ef57806318b8275a1461010d5780631f06c85914610129575b600080fd5b6100f76102cb565b6040516101049190611c46565b60405180910390f35b610127600480360361012291908101906117be565b610369565b005b610143600480360361013e919081019061187e565b6104c8565b604051610157989796959493929190611cf1565b60405180910390f35b61017a6004803603610175919081019061187e565b61065a565b60405161018a9493929190611ca5565b60405180910390f35b6101ad60048036036101a89190810190611795565b610742565b6040516101ba9190611c8a565b60405180910390f35b6101dd60048036036101d8919081019061187e565b61075a565b005b6101e7610837565b6040516101f49190611c68565b60405180910390f35b6102056109e7565b6040516102129190611c02565b60405180910390f35b610223610d5a565b6040516102309190611c8a565b60405180910390f35b610241610d60565b60405161024e9190611c24565b60405180910390f35b610271600480360361026c919081019061187e565b610ffa565b005b61027b6110d7565b6040516102889190611c8a565b60405180910390f35b6102ab60048036036102a691908101906117ff565b6110dd565b005b6102b56112cd565b6040516102c29190611c02565b60405180910390f35b60008054600181600116156101000203166002900480601f0160208091040260200160405190810160405280929190818152602001828054600181600116156101000203166002900480156103615780601f1061033657610100808354040283529160200191610361565b820191906000526020600020905b81548152906001019060200180831161034457829003601f168201915b505050505081565b600073ffffffffffffffffffffffffffffffffffffffff163373ffffffffffffffffffffffffffffffffffffffff1614156103a357600080fd5b600160008154809291906001019190505550604051806080016040528060015481526020013373ffffffffffffffffffffffffffffffffffffffff16815260200182815260200160008152506002600060015481526020019081526020016000206000820151816000015560208201518160010160006101000a81548173ffffffffffffffffffffffffffffffffffffffff021916908373ffffffffffffffffffffffffffffffffffffffff16021790555060408201518160020190805190602001906104719291906115ad565b5060608201518160030155905050600154600360003373ffffffffffffffffffffffffffffffffffffffff1673ffffffffffffffffffffffffffffffffffffffff1681526020019081526020016000208190555050565b6005602052806000526040600020600091509050806000015490806001018054600181600116156101000203166002900480601f01602080910402602001604051908101604052809291908181526020018280546001816001161561010002031660029004801561057a5780601f1061054f5761010080835404028352916020019161057a565b820191906000526020600020905b81548152906001019060200180831161055d57829003601f168201915b505050505090806002018054600181600116156101000203166002900480601f0160208091040260200160405190810160405280929190818152602001828054600181600116156101000203166002900480156106185780601f106105ed57610100808354040283529160200191610618565b820191906000526020600020905b8154815290600101906020018083116105fb57829003601f168201915b5050505050908060030154908060040160009054906101000a900460ff16908060040160019054906101000a900460ff16908060050154908060060154905088565b60026020528060005260406000206000915090508060000154908060010160009054906101000a900473ffffffffffffffffffffffffffffffffffffffff1690806002018054600181600116156101000203166002900480601f0160208091040260200160405190810160405280929190818152602001828054600181600116156101000203166002900480156107325780601f1061070757610100808354040283529160200191610732565b820191906000526020600020905b81548152906001019060200180831161071557829003601f168201915b5050505050908060030154905084565b60036020528060005260406000206000915090505481565b6000600360003373ffffffffffffffffffffffffffffffffffffffff1673ffffffffffffffffffffffffffffffffffffffff168152602001908152602001600020549050600082141580156107b157506004548211155b6107ba57600080fd5b600081141580156107cd57506001548111155b6107d657600080fd5b6005600083815260200190815260200160002060040160019054906101000a900460ff161561080457600080fd5b60016005600084815260200190815260200160002060040160016101000a81548160ff0219169083151502179055505050565b61083f61162d565b600073ffffffffffffffffffffffffffffffffffffffff163373ffffffffffffffffffffffffffffffffffffffff16141561087957600080fd5b60026000600360003373ffffffffffffffffffffffffffffffffffffffff1673ffffffffffffffffffffffffffffffffffffffff168152602001908152602001600020548152602001908152602001600020604051806080016040529081600082015481526020016001820160009054906101000a900473ffffffffffffffffffffffffffffffffffffffff1673ffffffffffffffffffffffffffffffffffffffff1673ffffffffffffffffffffffffffffffffffffffff168152602001600282018054600181600116156101000203166002900480601f0160208091040260200160405190810160405280929190818152602001828054600181600116156101000203166002900480156109cf5780601f106109a4576101008083540402835291602001916109cf565b820191906000526020600020905b8154815290600101906020018083116109b257829003601f168201915b50505050508152602001600382015481525050905090565b60606000600360003373ffffffffffffffffffffffffffffffffffffffff1673ffffffffffffffffffffffffffffffffffffffff168152602001908152602001600020549050600073ffffffffffffffffffffffffffffffffffffffff163373ffffffffffffffffffffffffffffffffffffffff161415610a6757600080fd5b60008090506000600190505b6004548111610ad0578260056000838152602001908152602001600020600501541480610ab55750826005600083815260200190815260200160002060060154145b15610ac35781806001019250505b8080600101915050610a73565b50606081604051908082528060200260200182016040528015610b0d57816020015b610afa61166b565b815260200190600190039081610af25790505b50905060008090506000600190505b6004548111610d4f578460056000838152602001908152602001600020600501541480610b5e5750846005600083815260200190815260200160002060060154145b15610d4257600560008281526020019081526020016000206040518061010001604052908160008201548152602001600182018054600181600116156101000203166002900480601f016020809104026020016040519081016040528092919081815260200182805460018160011615610100020316600290048015610c255780601f10610bfa57610100808354040283529160200191610c25565b820191906000526020600020905b815481529060010190602001808311610c0857829003601f168201915b50505050508152602001600282018054600181600116156101000203166002900480601f016020809104026020016040519081016040528092919081815260200182805460018160011615610100020316600290048015610cc75780601f10610c9c57610100808354040283529160200191610cc7565b820191906000526020600020905b815481529060010190602001808311610caa57829003601f168201915b50505050508152602001600382015481526020016004820160009054906101000a900460ff161515151581526020016004820160019054906101000a900460ff1615151515815260200160058201548152602001600682015481525050838380600101945081518110610d3657fe5b60200260200101819052505b8080600101915050610b1c565b508194505050505090565b60015481565b6060600073ffffffffffffffffffffffffffffffffffffffff163373ffffffffffffffffffffffffffffffffffffffff161415610d9c57600080fd5b6000600360003373ffffffffffffffffffffffffffffffffffffffff1673ffffffffffffffffffffffffffffffffffffffff16815260200190815260200160002054905060008090506000600190505b6001548111610e285782600260008381526020019081526020016000206000015414610e1b5781806001019250505b8080600101915050610dec565b50606081604051908082528060200260200182016040528015610e6557816020015b610e526116b4565b815260200190600190039081610e4a5790505b50905060008090506000600190505b6001548111610fef5784600260008381526020019081526020016000206000015414610fe25760026000828152602001908152602001600020604051806080016040529081600082015481526020016001820160009054906101000a900473ffffffffffffffffffffffffffffffffffffffff1673ffffffffffffffffffffffffffffffffffffffff1673ffffffffffffffffffffffffffffffffffffffff168152602001600282018054600181600116156101000203166002900480601f016020809104026020016040519081016040528092919081815260200182805460018160011615610100020316600290048015610fb15780601f10610f8657610100808354040283529160200191610fb1565b820191906000526020600020905b815481529060010190602001808311610f9457829003601f168201915b50505050508152602001600382015481525050838380600101945081518110610fd657fe5b60200260200101819052505b8080600101915050610e74565b508194505050505090565b6000600360003373ffffffffffffffffffffffffffffffffffffffff1673ffffffffffffffffffffffffffffffffffffffff1681526020019081526020016000205490506000821415801561105157506004548211155b61105a57600080fd5b6000811415801561106d57506001548111155b61107657600080fd5b6005600083815260200190815260200160002060040160009054906101000a900460ff16156110a457600080fd5b60016005600084815260200190815260200160002060040160006101000a81548160ff0219169083151502179055505050565b60045481565b6000600360003373ffffffffffffffffffffffffffffffffffffffff1673ffffffffffffffffffffffffffffffffffffffff168152602001908152602001600020549050600073ffffffffffffffffffffffffffffffffffffffff163373ffffffffffffffffffffffffffffffffffffffff16141561115b57600080fd5b6000821415801561116e57506001548211155b61117757600080fd5b6000811415801561118a57506001548111155b61119357600080fd5b6004600081548092919060010191905055506040518061010001604052806004548152602001858152602001848152602001428152602001600015158152602001600015158152602001828152602001838152506005600060045481526020019081526020016000206000820151816000015560208201518160010190805190602001906112229291906115ad565b50604082015181600201908051906020019061123f9291906115ad565b506060820151816003015560808201518160040160006101000a81548160ff02191690831515021790555060a08201518160040160016101000a81548160ff02191690831515021790555060c0820151816005015560e08201518160060155905050600260008281526020019081526020016000206003016000815480929190600101919050555050505050565b60606000600360003373ffffffffffffffffffffffffffffffffffffffff1673ffffffffffffffffffffffffffffffffffffffff1681526020019081526020016000205490506000811415801561132657506001548111155b61132f57600080fd5b60008090506060600260008481526020019081526020016000206003015460405190808252806020026020018201604052801561138657816020015b61137361166b565b81526020019060019003908161136b5790505b5090506000600190505b60045481116115a357836005600083815260200190815260200160002060050154141561159657600560008281526020019081526020016000206040518061010001604052908160008201548152602001600182018054600181600116156101000203166002900480601f0160208091040260200160405190810160405280929190818152602001828054600181600116156101000203166002900480156114795780601f1061144e57610100808354040283529160200191611479565b820191906000526020600020905b81548152906001019060200180831161145c57829003601f168201915b50505050508152602001600282018054600181600116156101000203166002900480601f01602080910402602001604051908101604052809291908181526020018280546001816001161561010002031660029004801561151b5780601f106114f05761010080835404028352916020019161151b565b820191906000526020600020905b8154815290600101906020018083116114fe57829003601f168201915b50505050508152602001600382015481526020016004820160009054906101000a900460ff161515151581526020016004820160019054906101000a900460ff161515151581526020016005820154815260200160068201548152505082848060010195508151811061158a57fe5b60200260200101819052505b8080600101915050611390565b5080935050505090565b828054600181600116156101000203166002900490600052602060002090601f016020900481019282601f106115ee57805160ff191683800117855561161c565b8280016001018555821561161c579182015b8281111561161b578251825591602001919060010190611600565b5b50905061162991906116f2565b5090565b604051806080016040528060008152602001600073ffffffffffffffffffffffffffffffffffffffff16815260200160608152602001600081525090565b6040518061010001604052806000815260200160608152602001606081526020016000815260200160001515815260200160001515815260200160008152602001600081525090565b604051806080016040528060008152602001600073ffffffffffffffffffffffffffffffffffffffff16815260200160608152602001600081525090565b61171491905b808211156117105760008160009055506001016116f8565b5090565b90565b60008135905061172681611f10565b92915050565b600082601f83011261173d57600080fd5b813561175061174b82611daa565b611d7d565b9150808252602083016020830185838301111561176c57600080fd5b611777838284611ebd565b50505092915050565b60008135905061178f81611f27565b92915050565b6000602082840312156117a757600080fd5b60006117b584828501611717565b91505092915050565b6000602082840312156117d057600080fd5b600082013567ffffffffffffffff8111156117ea57600080fd5b6117f68482850161172c565b91505092915050565b60008060006060848603121561181457600080fd5b600084013567ffffffffffffffff81111561182e57600080fd5b61183a8682870161172c565b935050602084013567ffffffffffffffff81111561185757600080fd5b6118638682870161172c565b925050604061187486828701611780565b9150509250925092565b60006020828403121561189057600080fd5b600061189e84828501611780565b91505092915050565b60006118b38383611a67565b905092915050565b60006118c78383611b81565b905092915050565b6118d881611e75565b82525050565b6118e781611e75565b82525050565b60006118f882611df6565b6119028185611e31565b93508360208202850161191485611dd6565b8060005b85811015611950578484038952815161193185826118a7565b945061193c83611e17565b925060208a01995050600181019050611918565b50829750879550505050505092915050565b600061196d82611e01565b6119778185611e42565b93508360208202850161198985611de6565b8060005b858110156119c557848403895281516119a685826118bb565b94506119b183611e24565b925060208a0199505060018101905061198d565b50829750879550505050505092915050565b6119e081611e87565b82525050565b6119ef81611e87565b82525050565b6000611a0082611e0c565b611a0a8185611e53565b9350611a1a818560208601611ecc565b611a2381611eff565b840191505092915050565b6000611a3982611e0c565b611a438185611e64565b9350611a53818560208601611ecc565b611a5c81611eff565b840191505092915050565b600061010083016000830151611a806000860182611be4565b5060208301518482036020860152611a9882826119f5565b91505060408301518482036040860152611ab282826119f5565b9150506060830151611ac76060860182611be4565b506080830151611ada60808601826119d7565b5060a0830151611aed60a08601826119d7565b5060c0830151611b0060c0860182611be4565b5060e0830151611b1360e0860182611be4565b508091505092915050565b6000608083016000830151611b366000860182611be4565b506020830151611b4960208601826118cf565b5060408301518482036040860152611b6182826119f5565b9150506060830151611b766060860182611be4565b508091505092915050565b6000608083016000830151611b996000860182611be4565b506020830151611bac60208601826118cf565b5060408301518482036040860152611bc482826119f5565b9150506060830151611bd96060860182611be4565b508091505092915050565b611bed81611eb3565b82525050565b611bfc81611eb3565b82525050565b60006020820190508181036000830152611c1c81846118ed565b905092915050565b60006020820190508181036000830152611c3e8184611962565b905092915050565b60006020820190508181036000830152611c608184611a2e565b905092915050565b60006020820190508181036000830152611c828184611b1e565b905092915050565b6000602082019050611c9f6000830184611bf3565b92915050565b6000608082019050611cba6000830187611bf3565b611cc760208301866118de565b8181036040830152611cd98185611a2e565b9050611ce86060830184611bf3565b95945050505050565b600061010082019050611d07600083018b611bf3565b8181036020830152611d19818a611a2e565b90508181036040830152611d2d8189611a2e565b9050611d3c6060830188611bf3565b611d4960808301876119e6565b611d5660a08301866119e6565b611d6360c0830185611bf3565b611d7060e0830184611bf3565b9998505050505050505050565b6000604051905081810181811067ffffffffffffffff82111715611da057600080fd5b8060405250919050565b600067ffffffffffffffff821115611dc157600080fd5b601f19601f8301169050602081019050919050565b6000819050602082019050919050565b6000819050602082019050919050565b600081519050919050565b600081519050919050565b600081519050919050565b6000602082019050919050565b6000602082019050919050565b600082825260208201905092915050565b600082825260208201905092915050565b600082825260208201905092915050565b600082825260208201905092915050565b6000611e8082611e93565b9050919050565b60008115159050919050565b600073ffffffffffffffffffffffffffffffffffffffff82169050919050565b6000819050919050565b82818337600083830152505050565b60005b83811015611eea578082015181840152602081019050611ecf565b83811115611ef9576000848401525b50505050565b6000601f19601f8301169050919050565b611f1981611e75565b8114611f2457600080fd5b50565b611f3081611eb3565b8114611f3b57600080fd5b5056fea365627a7a723158208b68c4a2714b1feba55e2aac74072bc37ecbf4a47cd87ce72d338ddce45cb6ec6c6578706572696d656e74616cf564736f6c63430005100040",
  "source": "// SPDX-License-Identifier: MIT\npragma solidity >=0.4.21 <0.7.0;\n\n// to enable return of two-levels of dynamic arrays\npragma experimental ABIEncoderV2;\n\ncontract PinkyPromise {\n    struct PinkyPromiseRecord {\n        uint256 id;\n        string title;\n        string description;\n        uint256 createdAt;\n        // indicates whether the sharing user has marked the promise as complete\n        bool completedBySharingUser;\n        // indicates whether the receiving user has marked the promise as complete\n        bool completedByReceivingUser;\n        // the user who created the promise\n        uint256 sharingUserId;\n        // the user with who the promise must be shared\n        uint256 receivingUserId;\n    }\n\n    struct PinkyUserRecord {\n        uint256 id;\n        address addr;\n        string name;\n        uint256 totalPromises;\n    }\n\n    string public name;\n\n    uint256 public usersCount = 0;\n    mapping(uint256 => PinkyUserRecord) public users;\n    mapping(address => uint256) public userIdByAddr;\n\n    uint256 public promisesCount = 0;\n    mapping(uint256 => PinkyPromiseRecord) public promises;\n\n    // uint256 public userPromiseIdsCount;\n    // // list of promises created by the user\n    // mapping(address => uint256[]) public promiseIdsByUserAddr;\n\n    constructor() public {\n        name = \"PinkyPromise\";\n    }\n\n    /**************************************************************************\n     *\n     * User management methods\n     *\n     **************************************************************************/\n\n    function getCurrentUser() public view returns (PinkyUserRecord memory) {\n        require(msg.sender != address(0));\n\n        return users[userIdByAddr[msg.sender]];\n    }\n\n    function addUser(string memory _name) public {\n        require(msg.sender != address(0));\n        usersCount++;\n        users[usersCount] = PinkyUserRecord(usersCount, msg.sender, _name, 0);\n        userIdByAddr[msg.sender] = usersCount;\n    }\n\n    function getViewableUsers() public view returns (PinkyUserRecord[] memory) {\n        require(msg.sender != address(0));\n\n        uint256 _userId = userIdByAddr[msg.sender];\n        uint256 _viewableUsersCount = 0;\n        for (uint256 i = 1; i <= usersCount; i++) {\n            // returns all users (except current user)\n            if (users[i].id != _userId) {\n                _viewableUsersCount++;\n            }\n        }\n\n        PinkyUserRecord[] memory _allViewableUsers = new PinkyUserRecord[](\n            _viewableUsersCount\n        );\n        uint256 count = 0;\n        for (uint256 i = 1; i <= usersCount; i++) {\n            if (users[i].id != _userId) {\n                _allViewableUsers[count++] = users[i];\n            }\n        }\n        return _allViewableUsers;\n    }\n\n    /**************************************************************************\n     *\n     * Promise management methods\n     *\n     **************************************************************************/\n\n    function addPromise(\n        string memory _title,\n        string memory _description,\n        uint256 _receivingUserId\n    ) public {\n        uint256 _sharingUserId = userIdByAddr[msg.sender];\n        require(msg.sender != address(0));\n        require(_receivingUserId != 0 && _receivingUserId <= usersCount);\n        require(_sharingUserId != 0 && _sharingUserId <= usersCount);\n\n        promisesCount++;\n        promises[promisesCount] = PinkyPromiseRecord(\n            promisesCount,\n            _title,\n            _description,\n            now,\n            false,\n            false,\n            _sharingUserId,\n            _receivingUserId\n        );\n\n        users[_sharingUserId].totalPromises++;\n    }\n\n    function getPromisesByUserId()\n        public\n        view\n        returns (PinkyPromiseRecord[] memory)\n    {\n        uint256 _userId = userIdByAddr[msg.sender];\n        require(_userId != 0 && _userId <= usersCount);\n\n        uint256 count = 0;\n        PinkyPromiseRecord[] memory _userPromises = new PinkyPromiseRecord[](\n            users[_userId].totalPromises\n        );\n        for (uint256 i = 1; i <= promisesCount; i++) {\n            if (promises[i].sharingUserId == _userId) {\n                _userPromises[count++] = promises[i];\n            }\n        }\n        return _userPromises;\n    }\n\n    function completePromiseAsSharingUser(uint256 _promiseId) public {\n        uint256 _userId = userIdByAddr[msg.sender];\n        require(_promiseId != 0 && _promiseId <= promisesCount);\n        require(_userId != 0 && _userId <= usersCount);\n        require(!promises[_promiseId].completedBySharingUser);\n\n        promises[_promiseId].completedBySharingUser = true;\n    }\n\n    function completePromiseAsReceivingUser(uint256 _promiseId) public {\n        uint256 _userId = userIdByAddr[msg.sender];\n        require(_promiseId != 0 && _promiseId <= promisesCount);\n        require(_userId != 0 && _userId <= usersCount);\n        require(!promises[_promiseId].completedByReceivingUser);\n\n        promises[_promiseId].completedByReceivingUser = true;\n    }\n\n    function getAllPromisesViewableByUser()\n        public\n        view\n        returns (PinkyPromiseRecord[] memory)\n    {\n        uint256 _userId = userIdByAddr[msg.sender];\n        require(msg.sender != address(0));\n\n        uint256 _viewablePromisesCount = 0;\n        for (uint256 i = 1; i <= promisesCount; i++) {\n            if (\n                promises[i].sharingUserId == _userId ||\n                promises[i].receivingUserId == _userId\n            ) {\n                _viewablePromisesCount++;\n            }\n        }\n\n        PinkyPromiseRecord[]\n            memory _allViewablePromises = new PinkyPromiseRecord[](\n                _viewablePromisesCount\n            );\n        uint256 count = 0;\n        for (uint256 i = 1; i <= promisesCount; i++) {\n            if (\n                promises[i].sharingUserId == _userId ||\n                promises[i].receivingUserId == _userId\n            ) {\n                _allViewablePromises[count++] = promises[i];\n            }\n        }\n        return _allViewablePromises;\n    }\n}\n",
  "sourcePath": "/Users/shanmni/Desktop/blockchain-assignment-pinky-promise/contracts/PinkyPromise.sol",
  "compiler": {
    "name": "solc",
    "version": "0.5.16+commit.9c3226ce.Emscripten.clang"
  },
  "schemaVersion": "3.4.3",
  "updatedAt": "2021-10-29T11:08:29.843Z",
  "networkType": "ethereum",
  "devdoc": {
    "methods": {}
  },
  "userdoc": {
    "methods": {
      "addPromise(string,string,uint256)": {
        "notice": "************************************************************************     * Promise management methods     *************************************************************************"
      },
      "getCurrentUser()": {
        "notice": "************************************************************************     * User management methods     *************************************************************************"
      }
    }
  }
}