{
  "contractName": "PinkyPromise",
  "abi": [
    {
      "inputs": [],
      "payable": false,
      "stateMutability": "nonpayable",
      "type": "constructor"
    },
    {
      "constant": true,
      "inputs": [],
      "name": "name",
      "outputs": [
        {
          "internalType": "string",
          "name": "",
          "type": "string"
        }
      ],
      "payable": false,
      "stateMutability": "view",
      "type": "function"
    },
    {
      "constant": true,
      "inputs": [
        {
          "internalType": "uint256",
          "name": "",
          "type": "uint256"
        }
      ],
      "name": "promises",
      "outputs": [
        {
          "internalType": "uint256",
          "name": "id",
          "type": "uint256"
        },
        {
          "internalType": "string",
          "name": "title",
          "type": "string"
        },
        {
          "internalType": "string",
          "name": "description",
          "type": "string"
        },
        {
          "internalType": "uint256",
          "name": "createdAt",
          "type": "uint256"
        },
        {
          "internalType": "uint256",
          "name": "sharingUserId",
          "type": "uint256"
        },
        {
          "internalType": "bool",
          "name": "completedBySharingUser",
          "type": "bool"
        },
        {
          "internalType": "uint256",
          "name": "completedBySharingUserAt",
          "type": "uint256"
        },
        {
          "internalType": "uint256",
          "name": "receivingUserId",
          "type": "uint256"
        },
        {
          "internalType": "bool",
          "name": "completedByReceivingUser",
          "type": "bool"
        },
        {
          "internalType": "uint256",
          "name": "completedByReceivingUserAt",
          "type": "uint256"
        },
        {
          "internalType": "uint256",
          "name": "expiresIn",
          "type": "uint256"
        }
      ],
      "payable": false,
      "stateMutability": "view",
      "type": "function"
    },
    {
      "constant": true,
      "inputs": [],
      "name": "promisesCount",
      "outputs": [
        {
          "internalType": "uint256",
          "name": "",
          "type": "uint256"
        }
      ],
      "payable": false,
      "stateMutability": "view",
      "type": "function"
    },
    {
      "constant": true,
      "inputs": [
        {
          "internalType": "address",
          "name": "",
          "type": "address"
        }
      ],
      "name": "userIdByAddr",
      "outputs": [
        {
          "internalType": "uint256",
          "name": "",
          "type": "uint256"
        }
      ],
      "payable": false,
      "stateMutability": "view",
      "type": "function"
    },
    {
      "constant": true,
      "inputs": [
        {
          "internalType": "uint256",
          "name": "",
          "type": "uint256"
        }
      ],
      "name": "users",
      "outputs": [
        {
          "internalType": "uint256",
          "name": "id",
          "type": "uint256"
        },
        {
          "internalType": "address",
          "name": "addr",
          "type": "address"
        },
        {
          "internalType": "string",
          "name": "name",
          "type": "string"
        },
        {
          "internalType": "uint256",
          "name": "totalPromises",
          "type": "uint256"
        }
      ],
      "payable": false,
      "stateMutability": "view",
      "type": "function"
    },
    {
      "constant": true,
      "inputs": [],
      "name": "usersCount",
      "outputs": [
        {
          "internalType": "uint256",
          "name": "",
          "type": "uint256"
        }
      ],
      "payable": false,
      "stateMutability": "view",
      "type": "function"
    },
    {
      "constant": true,
      "inputs": [],
      "name": "getCurrentUser",
      "outputs": [
        {
          "components": [
            {
              "internalType": "uint256",
              "name": "id",
              "type": "uint256"
            },
            {
              "internalType": "address",
              "name": "addr",
              "type": "address"
            },
            {
              "internalType": "string",
              "name": "name",
              "type": "string"
            },
            {
              "internalType": "uint256",
              "name": "totalPromises",
              "type": "uint256"
            }
          ],
          "internalType": "struct PinkyPromise.PinkyUserRecord",
          "name": "",
          "type": "tuple"
        }
      ],
      "payable": false,
      "stateMutability": "view",
      "type": "function"
    },
    {
      "constant": false,
      "inputs": [
        {
          "internalType": "string",
          "name": "_name",
          "type": "string"
        }
      ],
      "name": "addUser",
      "outputs": [],
      "payable": false,
      "stateMutability": "nonpayable",
      "type": "function"
    },
    {
      "constant": true,
      "inputs": [],
      "name": "getViewableUsers",
      "outputs": [
        {
          "components": [
            {
              "internalType": "uint256",
              "name": "id",
              "type": "uint256"
            },
            {
              "internalType": "address",
              "name": "addr",
              "type": "address"
            },
            {
              "internalType": "string",
              "name": "name",
              "type": "string"
            },
            {
              "internalType": "uint256",
              "name": "totalPromises",
              "type": "uint256"
            }
          ],
          "internalType": "struct PinkyPromise.PinkyUserRecord[]",
          "name": "",
          "type": "tuple[]"
        }
      ],
      "payable": false,
      "stateMutability": "view",
      "type": "function"
    },
    {
      "constant": false,
      "inputs": [
        {
          "internalType": "string",
          "name": "_title",
          "type": "string"
        },
        {
          "internalType": "string",
          "name": "_description",
          "type": "string"
        },
        {
          "internalType": "uint256",
          "name": "_receivingUserId",
          "type": "uint256"
        },
        {
          "internalType": "uint256",
          "name": "_expiresIn",
          "type": "uint256"
        }
      ],
      "name": "addPromise",
      "outputs": [],
      "payable": false,
      "stateMutability": "nonpayable",
      "type": "function"
    },
    {
      "constant": true,
      "inputs": [],
      "name": "getPromisesByUserId",
      "outputs": [
        {
          "components": [
            {
              "internalType": "uint256",
              "name": "id",
              "type": "uint256"
            },
            {
              "internalType": "string",
              "name": "title",
              "type": "string"
            },
            {
              "internalType": "string",
              "name": "description",
              "type": "string"
            },
            {
              "internalType": "uint256",
              "name": "createdAt",
              "type": "uint256"
            },
            {
              "internalType": "uint256",
              "name": "sharingUserId",
              "type": "uint256"
            },
            {
              "internalType": "bool",
              "name": "completedBySharingUser",
              "type": "bool"
            },
            {
              "internalType": "uint256",
              "name": "completedBySharingUserAt",
              "type": "uint256"
            },
            {
              "internalType": "uint256",
              "name": "receivingUserId",
              "type": "uint256"
            },
            {
              "internalType": "bool",
              "name": "completedByReceivingUser",
              "type": "bool"
            },
            {
              "internalType": "uint256",
              "name": "completedByReceivingUserAt",
              "type": "uint256"
            },
            {
              "internalType": "uint256",
              "name": "expiresIn",
              "type": "uint256"
            }
          ],
          "internalType": "struct PinkyPromise.PinkyPromiseRecord[]",
          "name": "",
          "type": "tuple[]"
        }
      ],
      "payable": false,
      "stateMutability": "view",
      "type": "function"
    },
    {
      "constant": false,
      "inputs": [
        {
          "internalType": "uint256",
          "name": "_promiseId",
          "type": "uint256"
        }
      ],
      "name": "completePromiseAsSharingUser",
      "outputs": [],
      "payable": false,
      "stateMutability": "nonpayable",
      "type": "function"
    },
    {
      "constant": false,
      "inputs": [
        {
          "internalType": "uint256",
          "name": "_promiseId",
          "type": "uint256"
        }
      ],
      "name": "completePromiseAsReceivingUser",
      "outputs": [],
      "payable": false,
      "stateMutability": "nonpayable",
      "type": "function"
    },
    {
      "constant": true,
      "inputs": [],
      "name": "getAllPromisesViewableByUser",
      "outputs": [
        {
          "components": [
            {
              "internalType": "uint256",
              "name": "id",
              "type": "uint256"
            },
            {
              "internalType": "string",
              "name": "title",
              "type": "string"
            },
            {
              "internalType": "string",
              "name": "description",
              "type": "string"
            },
            {
              "internalType": "uint256",
              "name": "createdAt",
              "type": "uint256"
            },
            {
              "internalType": "uint256",
              "name": "sharingUserId",
              "type": "uint256"
            },
            {
              "internalType": "bool",
              "name": "completedBySharingUser",
              "type": "bool"
            },
            {
              "internalType": "uint256",
              "name": "completedBySharingUserAt",
              "type": "uint256"
            },
            {
              "internalType": "uint256",
              "name": "receivingUserId",
              "type": "uint256"
            },
            {
              "internalType": "bool",
              "name": "completedByReceivingUser",
              "type": "bool"
            },
            {
              "internalType": "uint256",
              "name": "completedByReceivingUserAt",
              "type": "uint256"
            },
            {
              "internalType": "uint256",
              "name": "expiresIn",
              "type": "uint256"
            }
          ],
          "internalType": "struct PinkyPromise.PinkyPromiseRecord[]",
          "name": "",
          "type": "tuple[]"
        }
      ],
      "payable": false,
      "stateMutability": "view",
      "type": "function"
    }
  ],
  "bytecode": "0x6080604052600060015560006004553480156200001b57600080fd5b506040518060400160405280600c81526020017f50696e6b7950726f6d6973650000000000000000000000000000000000000000815250600090805190602001906200006992919062000070565b506200011f565b828054600181600116156101000203166002900490600052602060002090601f016020900481019282601f10620000b357805160ff1916838001178555620000e4565b82800160010185558215620000e4579182015b82811115620000e3578251825591602001919060010190620000c6565b5b509050620000f39190620000f7565b5090565b6200011c91905b8082111562000118576000816000905550600101620000fe565b5090565b90565b61215d806200012f6000396000f3fe608060405234801561001057600080fd5b50600436106100ea5760003560e01c806343ae37c31161008c57806392a9a1fc1161006657806392a9a1fc14610258578063a852904114610276578063b0083c7614610292578063e4498b62146102b0576100ea565b806343ae37c3146101fe57806362b8bb851461021c5780636ba13a821461023a576100ea565b80631f06c859116100c85780631f06c85914610145578063365b98b21461017f5780633c856721146101b2578063411dee92146101e2576100ea565b806306fdde03146100ef57806317d0c32e1461010d57806318b8275a14610129575b600080fd5b6100f76102ce565b6040516101049190611df5565b60405180910390f35b6101276004803603610122919081019061195b565b61036c565b005b610143600480360361013e919081019061191a565b610592565b005b61015f600480360361015a91908101906119ee565b6106f1565b6040516101769b9a99989796959493929190611ea0565b60405180910390f35b610199600480360361019491908101906119ee565b610895565b6040516101a99493929190611e54565b60405180910390f35b6101cc60048036036101c791908101906118f1565b61097d565b6040516101d99190611e39565b60405180910390f35b6101fc60048036036101f791908101906119ee565b610995565b005b610206610ad2565b6040516102139190611e17565b60405180910390f35b610224610c82565b6040516102319190611db1565b60405180910390f35b610242611013565b60405161024f9190611e39565b60405180910390f35b610260611019565b60405161026d9190611dd3565b60405180910390f35b610290600480360361028b91908101906119ee565b6112b3565b005b61029a6113f0565b6040516102a79190611e39565b60405180910390f35b6102b86113f6565b6040516102c59190611db1565b60405180910390f35b60008054600181600116156101000203166002900480601f0160208091040260200160405190810160405280929190818152602001828054600181600116156101000203166002900480156103645780601f1061033957610100808354040283529160200191610364565b820191906000526020600020905b81548152906001019060200180831161034757829003601f168201915b505050505081565b6000600360003373ffffffffffffffffffffffffffffffffffffffff1673ffffffffffffffffffffffffffffffffffffffff168152602001908152602001600020549050600073ffffffffffffffffffffffffffffffffffffffff163373ffffffffffffffffffffffffffffffffffffffff1614156103ea57600080fd5b600083141580156103fd57506001548311155b61040657600080fd5b6000811415801561041957506001548111155b61042257600080fd5b60046000815480929190600101919050555060405180610160016040528060045481526020018681526020018581526020014281526020018281526020016000151581526020016000815260200184815260200160001515815260200160008152602001838152506005600060045481526020019081526020016000206000820151816000015560208201518160010190805190602001906104c59291906116f4565b5060408201518160020190805190602001906104e29291906116f4565b50606082015181600301556080820151816004015560a08201518160050160006101000a81548160ff02191690831515021790555060c0820151816006015560e082015181600701556101008201518160080160006101000a81548160ff021916908315150217905550610120820151816009015561014082015181600a015590505060026000828152602001908152602001600020600301600081548092919060010191905055505050505050565b600073ffffffffffffffffffffffffffffffffffffffff163373ffffffffffffffffffffffffffffffffffffffff1614156105cc57600080fd5b600160008154809291906001019190505550604051806080016040528060015481526020013373ffffffffffffffffffffffffffffffffffffffff16815260200182815260200160008152506002600060015481526020019081526020016000206000820151816000015560208201518160010160006101000a81548173ffffffffffffffffffffffffffffffffffffffff021916908373ffffffffffffffffffffffffffffffffffffffff160217905550604082015181600201908051906020019061069a9291906116f4565b5060608201518160030155905050600154600360003373ffffffffffffffffffffffffffffffffffffffff1673ffffffffffffffffffffffffffffffffffffffff1681526020019081526020016000208190555050565b6005602052806000526040600020600091509050806000015490806001018054600181600116156101000203166002900480601f0160208091040260200160405190810160405280929190818152602001828054600181600116156101000203166002900480156107a35780601f10610778576101008083540402835291602001916107a3565b820191906000526020600020905b81548152906001019060200180831161078657829003601f168201915b505050505090806002018054600181600116156101000203166002900480601f0160208091040260200160405190810160405280929190818152602001828054600181600116156101000203166002900480156108415780601f1061081657610100808354040283529160200191610841565b820191906000526020600020905b81548152906001019060200180831161082457829003601f168201915b5050505050908060030154908060040154908060050160009054906101000a900460ff16908060060154908060070154908060080160009054906101000a900460ff169080600901549080600a015490508b565b60026020528060005260406000206000915090508060000154908060010160009054906101000a900473ffffffffffffffffffffffffffffffffffffffff1690806002018054600181600116156101000203166002900480601f01602080910402602001604051908101604052809291908181526020018280546001816001161561010002031660029004801561096d5780601f106109425761010080835404028352916020019161096d565b820191906000526020600020905b81548152906001019060200180831161095057829003601f168201915b5050505050908060030154905084565b60036020528060005260406000206000915090505481565b6000600360003373ffffffffffffffffffffffffffffffffffffffff1673ffffffffffffffffffffffffffffffffffffffff168152602001908152602001600020549050600082141580156109ec57506004548211155b6109f557600080fd5b60008114158015610a0857506001548111155b610a1157600080fd5b80600560008481526020019081526020016000206007015414610a3357600080fd5b4260056000848152602001908152602001600020600a01541015610a5657600080fd5b6005600083815260200190815260200160002060080160009054906101000a900460ff1615610a8457600080fd5b60016005600084815260200190815260200160002060080160006101000a81548160ff0219169083151502179055504260056000848152602001908152602001600020600901819055505050565b610ada611774565b600073ffffffffffffffffffffffffffffffffffffffff163373ffffffffffffffffffffffffffffffffffffffff161415610b1457600080fd5b60026000600360003373ffffffffffffffffffffffffffffffffffffffff1673ffffffffffffffffffffffffffffffffffffffff168152602001908152602001600020548152602001908152602001600020604051806080016040529081600082015481526020016001820160009054906101000a900473ffffffffffffffffffffffffffffffffffffffff1673ffffffffffffffffffffffffffffffffffffffff1673ffffffffffffffffffffffffffffffffffffffff168152602001600282018054600181600116156101000203166002900480601f016020809104026020016040519081016040528092919081815260200182805460018160011615610100020316600290048015610c6a5780601f10610c3f57610100808354040283529160200191610c6a565b820191906000526020600020905b815481529060010190602001808311610c4d57829003601f168201915b50505050508152602001600382015481525050905090565b60606000600360003373ffffffffffffffffffffffffffffffffffffffff1673ffffffffffffffffffffffffffffffffffffffff168152602001908152602001600020549050600073ffffffffffffffffffffffffffffffffffffffff163373ffffffffffffffffffffffffffffffffffffffff161415610d0257600080fd5b60008090506000600190505b6004548111610d6b578260056000838152602001908152602001600020600401541480610d505750826005600083815260200190815260200160002060070154145b15610d5e5781806001019250505b8080600101915050610d0e565b50606081604051908082528060200260200182016040528015610da857816020015b610d956117b2565b815260200190600190039081610d8d5790505b50905060008090506000600190505b6004548111611008578460056000838152602001908152602001600020600401541480610df95750846005600083815260200190815260200160002060070154145b15610ffb57600560008281526020019081526020016000206040518061016001604052908160008201548152602001600182018054600181600116156101000203166002900480601f016020809104026020016040519081016040528092919081815260200182805460018160011615610100020316600290048015610ec05780601f10610e9557610100808354040283529160200191610ec0565b820191906000526020600020905b815481529060010190602001808311610ea357829003601f168201915b50505050508152602001600282018054600181600116156101000203166002900480601f016020809104026020016040519081016040528092919081815260200182805460018160011615610100020316600290048015610f625780601f10610f3757610100808354040283529160200191610f62565b820191906000526020600020905b815481529060010190602001808311610f4557829003601f168201915b5050505050815260200160038201548152602001600482015481526020016005820160009054906101000a900460ff1615151515815260200160068201548152602001600782015481526020016008820160009054906101000a900460ff1615151515815260200160098201548152602001600a82015481525050838380600101945081518110610fef57fe5b60200260200101819052505b8080600101915050610db7565b508194505050505090565b60015481565b6060600073ffffffffffffffffffffffffffffffffffffffff163373ffffffffffffffffffffffffffffffffffffffff16141561105557600080fd5b6000600360003373ffffffffffffffffffffffffffffffffffffffff1673ffffffffffffffffffffffffffffffffffffffff16815260200190815260200160002054905060008090506000600190505b60015481116110e157826002600083815260200190815260200160002060000154146110d45781806001019250505b80806001019150506110a5565b5060608160405190808252806020026020018201604052801561111e57816020015b61110b611810565b8152602001906001900390816111035790505b50905060008090506000600190505b60015481116112a8578460026000838152602001908152602001600020600001541461129b5760026000828152602001908152602001600020604051806080016040529081600082015481526020016001820160009054906101000a900473ffffffffffffffffffffffffffffffffffffffff1673ffffffffffffffffffffffffffffffffffffffff1673ffffffffffffffffffffffffffffffffffffffff168152602001600282018054600181600116156101000203166002900480601f01602080910402602001604051908101604052809291908181526020018280546001816001161561010002031660029004801561126a5780601f1061123f5761010080835404028352916020019161126a565b820191906000526020600020905b81548152906001019060200180831161124d57829003601f168201915b5050505050815260200160038201548152505083838060010194508151811061128f57fe5b60200260200101819052505b808060010191505061112d565b508194505050505090565b6000600360003373ffffffffffffffffffffffffffffffffffffffff1673ffffffffffffffffffffffffffffffffffffffff1681526020019081526020016000205490506000821415801561130a57506004548211155b61131357600080fd5b6000811415801561132657506001548111155b61132f57600080fd5b8060056000848152602001908152602001600020600401541461135157600080fd5b4260056000848152602001908152602001600020600a0154101561137457600080fd5b6005600083815260200190815260200160002060050160009054906101000a900460ff16156113a257600080fd5b60016005600084815260200190815260200160002060050160006101000a81548160ff0219169083151502179055504260056000848152602001908152602001600020600601819055505050565b60045481565b60606000600360003373ffffffffffffffffffffffffffffffffffffffff1673ffffffffffffffffffffffffffffffffffffffff1681526020019081526020016000205490506000811415801561144f57506001548111155b61145857600080fd5b6000809050606060026000848152602001908152602001600020600301546040519080825280602002602001820160405280156114af57816020015b61149c6117b2565b8152602001906001900390816114945790505b5090506000600190505b60045481116116ea5783600560008381526020019081526020016000206004015414156116dd57600560008281526020019081526020016000206040518061016001604052908160008201548152602001600182018054600181600116156101000203166002900480601f0160208091040260200160405190810160405280929190818152602001828054600181600116156101000203166002900480156115a25780601f10611577576101008083540402835291602001916115a2565b820191906000526020600020905b81548152906001019060200180831161158557829003601f168201915b50505050508152602001600282018054600181600116156101000203166002900480601f0160208091040260200160405190810160405280929190818152602001828054600181600116156101000203166002900480156116445780601f1061161957610100808354040283529160200191611644565b820191906000526020600020905b81548152906001019060200180831161162757829003601f168201915b5050505050815260200160038201548152602001600482015481526020016005820160009054906101000a900460ff1615151515815260200160068201548152602001600782015481526020016008820160009054906101000a900460ff1615151515815260200160098201548152602001600a820154815250508284806001019550815181106116d157fe5b60200260200101819052505b80806001019150506114b9565b5080935050505090565b828054600181600116156101000203166002900490600052602060002090601f016020900481019282601f1061173557805160ff1916838001178555611763565b82800160010185558215611763579182015b82811115611762578251825591602001919060010190611747565b5b509050611770919061184e565b5090565b604051806080016040528060008152602001600073ffffffffffffffffffffffffffffffffffffffff16815260200160608152602001600081525090565b6040518061016001604052806000815260200160608152602001606081526020016000815260200160008152602001600015158152602001600081526020016000815260200160001515815260200160008152602001600081525090565b604051806080016040528060008152602001600073ffffffffffffffffffffffffffffffffffffffff16815260200160608152602001600081525090565b61187091905b8082111561186c576000816000905550600101611854565b5090565b90565b600081359050611882816120ec565b92915050565b600082601f83011261189957600080fd5b81356118ac6118a782611f86565b611f59565b915080825260208301602083018583830111156118c857600080fd5b6118d3838284612099565b50505092915050565b6000813590506118eb81612103565b92915050565b60006020828403121561190357600080fd5b600061191184828501611873565b91505092915050565b60006020828403121561192c57600080fd5b600082013567ffffffffffffffff81111561194657600080fd5b61195284828501611888565b91505092915050565b6000806000806080858703121561197157600080fd5b600085013567ffffffffffffffff81111561198b57600080fd5b61199787828801611888565b945050602085013567ffffffffffffffff8111156119b457600080fd5b6119c087828801611888565b93505060406119d1878288016118dc565b92505060606119e2878288016118dc565b91505092959194509250565b600060208284031215611a0057600080fd5b6000611a0e848285016118dc565b91505092915050565b6000611a238383611bd7565b905092915050565b6000611a378383611d30565b905092915050565b611a4881612051565b82525050565b611a5781612051565b82525050565b6000611a6882611fd2565b611a72818561200d565b935083602082028501611a8485611fb2565b8060005b85811015611ac05784840389528151611aa18582611a17565b9450611aac83611ff3565b925060208a01995050600181019050611a88565b50829750879550505050505092915050565b6000611add82611fdd565b611ae7818561201e565b935083602082028501611af985611fc2565b8060005b85811015611b355784840389528151611b168582611a2b565b9450611b2183612000565b925060208a01995050600181019050611afd565b50829750879550505050505092915050565b611b5081612063565b82525050565b611b5f81612063565b82525050565b6000611b7082611fe8565b611b7a818561202f565b9350611b8a8185602086016120a8565b611b93816120db565b840191505092915050565b6000611ba982611fe8565b611bb38185612040565b9350611bc38185602086016120a8565b611bcc816120db565b840191505092915050565b600061016083016000830151611bf06000860182611d93565b5060208301518482036020860152611c088282611b65565b91505060408301518482036040860152611c228282611b65565b9150506060830151611c376060860182611d93565b506080830151611c4a6080860182611d93565b5060a0830151611c5d60a0860182611b47565b5060c0830151611c7060c0860182611d93565b5060e0830151611c8360e0860182611d93565b50610100830151611c98610100860182611b47565b50610120830151611cad610120860182611d93565b50610140830151611cc2610140860182611d93565b508091505092915050565b6000608083016000830151611ce56000860182611d93565b506020830151611cf86020860182611a3f565b5060408301518482036040860152611d108282611b65565b9150506060830151611d256060860182611d93565b508091505092915050565b6000608083016000830151611d486000860182611d93565b506020830151611d5b6020860182611a3f565b5060408301518482036040860152611d738282611b65565b9150506060830151611d886060860182611d93565b508091505092915050565b611d9c8161208f565b82525050565b611dab8161208f565b82525050565b60006020820190508181036000830152611dcb8184611a5d565b905092915050565b60006020820190508181036000830152611ded8184611ad2565b905092915050565b60006020820190508181036000830152611e0f8184611b9e565b905092915050565b60006020820190508181036000830152611e318184611ccd565b905092915050565b6000602082019050611e4e6000830184611da2565b92915050565b6000608082019050611e696000830187611da2565b611e766020830186611a4e565b8181036040830152611e888185611b9e565b9050611e976060830184611da2565b95945050505050565b600061016082019050611eb6600083018e611da2565b8181036020830152611ec8818d611b9e565b90508181036040830152611edc818c611b9e565b9050611eeb606083018b611da2565b611ef8608083018a611da2565b611f0560a0830189611b56565b611f1260c0830188611da2565b611f1f60e0830187611da2565b611f2d610100830186611b56565b611f3b610120830185611da2565b611f49610140830184611da2565b9c9b505050505050505050505050565b6000604051905081810181811067ffffffffffffffff82111715611f7c57600080fd5b8060405250919050565b600067ffffffffffffffff821115611f9d57600080fd5b601f19601f8301169050602081019050919050565b6000819050602082019050919050565b6000819050602082019050919050565b600081519050919050565b600081519050919050565b600081519050919050565b6000602082019050919050565b6000602082019050919050565b600082825260208201905092915050565b600082825260208201905092915050565b600082825260208201905092915050565b600082825260208201905092915050565b600061205c8261206f565b9050919050565b60008115159050919050565b600073ffffffffffffffffffffffffffffffffffffffff82169050919050565b6000819050919050565b82818337600083830152505050565b60005b838110156120c65780820151818401526020810190506120ab565b838111156120d5576000848401525b50505050565b6000601f19601f8301169050919050565b6120f581612051565b811461210057600080fd5b50565b61210c8161208f565b811461211757600080fd5b5056fea365627a7a72315820c1ccbc018e4fc152093f5ef522f20dfec0f01c0b724e123d1d0e6372163fca456c6578706572696d656e74616cf564736f6c63430005100040",
  "source": "// SPDX-License-Identifier: MIT\npragma solidity >=0.4.21 <0.7.0;\n\n// to enable return of two-levels of dynamic arrays\npragma experimental ABIEncoderV2;\n\ncontract PinkyPromise {\n    struct PinkyPromiseRecord {\n        uint256 id;\n        string title;\n        string description;\n        uint256 createdAt;\n        // the user who created the promise\n        uint256 sharingUserId;\n        // indicates whether the sharing user has marked the promise as complete\n        bool completedBySharingUser;\n        uint256 completedBySharingUserAt;\n        // the user with who the promise must be shared\n        uint256 receivingUserId;\n        // indicates whether the receiving user has marked the promise as complete\n        bool completedByReceivingUser;\n        uint256 completedByReceivingUserAt;\n        uint256 expiresIn;\n    }\n\n    struct PinkyUserRecord {\n        uint256 id;\n        address addr;\n        string name;\n        uint256 totalPromises;\n    }\n\n    string public name;\n\n    uint256 public usersCount = 0;\n    mapping(uint256 => PinkyUserRecord) public users;\n    mapping(address => uint256) public userIdByAddr;\n\n    uint256 public promisesCount = 0;\n    mapping(uint256 => PinkyPromiseRecord) public promises;\n\n    // uint256 public userPromiseIdsCount;\n    // // list of promises created by the user\n    // mapping(address => uint256[]) public promiseIdsByUserAddr;\n\n    constructor() public {\n        name = \"PinkyPromise\";\n    }\n\n    /**************************************************************************\n     *\n     * User management methods\n     *\n     **************************************************************************/\n\n    function getCurrentUser() public view returns (PinkyUserRecord memory) {\n        require(msg.sender != address(0));\n        return users[userIdByAddr[msg.sender]];\n    }\n\n    function addUser(string memory _name) public {\n        require(msg.sender != address(0));\n        usersCount++;\n        users[usersCount] = PinkyUserRecord(usersCount, msg.sender, _name, 0);\n        userIdByAddr[msg.sender] = usersCount;\n    }\n\n    function getViewableUsers() public view returns (PinkyUserRecord[] memory) {\n        require(msg.sender != address(0));\n\n        uint256 _userId = userIdByAddr[msg.sender];\n        uint256 _viewableUsersCount = 0;\n        for (uint256 i = 1; i <= usersCount; i++) {\n            // returns all users (except current user)\n            if (users[i].id != _userId) {\n                _viewableUsersCount++;\n            }\n        }\n\n        PinkyUserRecord[] memory _allViewableUsers = new PinkyUserRecord[](\n            _viewableUsersCount\n        );\n        uint256 count = 0;\n        for (uint256 i = 1; i <= usersCount; i++) {\n            if (users[i].id != _userId) {\n                _allViewableUsers[count++] = users[i];\n            }\n        }\n        return _allViewableUsers;\n    }\n\n    /**************************************************************************\n     *\n     * Promise management methods\n     *\n     **************************************************************************/\n\n    function addPromise(\n        string memory _title,\n        string memory _description,\n        uint256 _receivingUserId,\n        uint256 _expiresIn\n    ) public {\n        uint256 _sharingUserId = userIdByAddr[msg.sender];\n        require(msg.sender != address(0));\n        require(_receivingUserId != 0 && _receivingUserId <= usersCount);\n        require(_sharingUserId != 0 && _sharingUserId <= usersCount);\n\n        promisesCount++;\n        promises[promisesCount] = PinkyPromiseRecord(\n            promisesCount,\n            _title,\n            _description,\n            now,\n            _sharingUserId,\n            false,\n            0,\n            _receivingUserId,\n            false,\n            0,\n            _expiresIn\n        );\n\n        users[_sharingUserId].totalPromises++;\n    }\n\n    function getPromisesByUserId()\n        public\n        view\n        returns (PinkyPromiseRecord[] memory)\n    {\n        uint256 _userId = userIdByAddr[msg.sender];\n        require(_userId != 0 && _userId <= usersCount);\n\n        uint256 count = 0;\n        PinkyPromiseRecord[] memory _userPromises = new PinkyPromiseRecord[](\n            users[_userId].totalPromises\n        );\n        for (uint256 i = 1; i <= promisesCount; i++) {\n            if (promises[i].sharingUserId == _userId) {\n                _userPromises[count++] = promises[i];\n            }\n        }\n        return _userPromises;\n    }\n\n    function completePromiseAsSharingUser(uint256 _promiseId) public {\n        uint256 _userId = userIdByAddr[msg.sender];\n        require(_promiseId != 0 && _promiseId <= promisesCount);\n        require(_userId != 0 && _userId <= usersCount);\n        require(promises[_promiseId].sharingUserId == _userId);\n        require(promises[_promiseId].expiresIn >= now);\n        require(!promises[_promiseId].completedBySharingUser);\n\n        promises[_promiseId].completedBySharingUser = true;\n        promises[_promiseId].completedBySharingUserAt = now;\n    }\n\n    function completePromiseAsReceivingUser(uint256 _promiseId) public {\n        uint256 _userId = userIdByAddr[msg.sender];\n        require(_promiseId != 0 && _promiseId <= promisesCount);\n        require(_userId != 0 && _userId <= usersCount);\n        require(promises[_promiseId].receivingUserId == _userId);\n        require(promises[_promiseId].expiresIn >= now);\n        require(!promises[_promiseId].completedByReceivingUser);\n\n        promises[_promiseId].completedByReceivingUser = true;\n        promises[_promiseId].completedByReceivingUserAt = now;\n    }\n\n    function getAllPromisesViewableByUser()\n        public\n        view\n        returns (PinkyPromiseRecord[] memory)\n    {\n        uint256 _userId = userIdByAddr[msg.sender];\n        require(msg.sender != address(0));\n\n        uint256 _viewablePromisesCount = 0;\n        for (uint256 i = 1; i <= promisesCount; i++) {\n            if (\n                promises[i].sharingUserId == _userId ||\n                promises[i].receivingUserId == _userId\n            ) {\n                _viewablePromisesCount++;\n            }\n        }\n\n        PinkyPromiseRecord[]\n            memory _allViewablePromises = new PinkyPromiseRecord[](\n                _viewablePromisesCount\n            );\n        uint256 count = 0;\n        for (uint256 i = 1; i <= promisesCount; i++) {\n            if (\n                promises[i].sharingUserId == _userId ||\n                promises[i].receivingUserId == _userId\n            ) {\n                _allViewablePromises[count++] = promises[i];\n            }\n        }\n        return _allViewablePromises;\n    }\n}\n",
  "sourcePath": "/Users/shanmni/Desktop/blockchain-assignment-pinky-promise/contracts/PinkyPromise.sol",
  "compiler": {
    "name": "solc",
    "version": "0.5.16+commit.9c3226ce.Emscripten.clang"
  },
  "schemaVersion": "3.4.3",
  "updatedAt": "2021-10-29T19:31:21.683Z",
  "networkType": "ethereum",
  "devdoc": {
    "methods": {}
  },
  "userdoc": {
    "methods": {
      "addPromise(string,string,uint256,uint256)": {
        "notice": "************************************************************************     * Promise management methods     *************************************************************************"
      },
      "getCurrentUser()": {
        "notice": "************************************************************************     * User management methods     *************************************************************************"
      }
    }
  }
}